:020000040800F2
:1000000000400020BD350008653100086731000858
:1000100000000000000000000000000000000000E0
:10002000000000000000000000000000693100082E
:1000300000000000000000006B3100086D31000876
:100040000D360008000000000D3600080D360008CF
:100050000D3600080D3600080D3600080D36000874
:10006000000000000D3600080D3600080D360008AF
:100070000D3600080D3600080D360008000000009F
:100080000D3600080D3600080D3600080D36000844
:100090000D3600080D3600080D3600080D36000834
:1000A0000D3600080D3600080D3600080D36000824
:1000B0000D3600080D3600080000000075310008FC
:1000C00010B5064C2378002B07D1054B002B02D02E
:1000D000044800E000BF0123237010BDE8010020A8
:1000E0000000000068360008044B10B5002B03D058
:1000F0000349044800E000BF10BDC04600000000F6
:10010000EC01002068360008002243088B4274D3BB
:1001100003098B425FD3030A8B4244D3030B8B4208
:1001200028D3030C8B420DD3FF22090212BA030C11
:100130008B4202D31212090265D0030B8B4219D3F2
:1001400000E0090AC30B8B4201D3CB03C01A524112
:10015000830B8B4201D38B03C01A5241430B8B425A
:1001600001D34B03C01A5241030B8B4201D30B0343
:10017000C01A5241C30A8B4201D3CB02C01A52416A
:10018000830A8B4201D38B02C01A5241430A8B422D
:1001900001D34B02C01A5241030A8B4201D30B0216
:1001A000C01A5241CDD2C3098B4201D3CB01C01A30
:1001B000524183098B4201D38B01C01A524143093A
:1001C0008B4201D34B01C01A524103098B4201D328
:1001D0000B01C01A5241C3088B4201D3CB00C01A95
:1001E000524183088B4201D38B00C01A524143080D
:1001F0008B4201D34B00C01A5241411A00D2014632
:10020000524110467047FFE701B5002000F006F8A4
:1002100002BDC0460029F7D076E770477047C04658
:1002200010B5040001F040FEFA218900FFF76CFFD1
:1002300000F072F8012000222100404200F032F864
:10024000002010BD10B5064A136810210B4313603F
:100250000020FFF7E5FF02F001FF002010BDC046BF
:1002600000200240024A1368013313607047C04601
:100270001C020020014B18687047C0461C02002079
:1002800030B583B00190FFF7F5FF0500019C631CBA
:1002900000D00134FFF7EEFF401BA042FAD303B0B9
:1002A00030BD000070B5002811DB8308134DC0334A
:1002B0009B005C5903221040C000FC3216008640AF
:1002C000B44389010A40824022435A5170BD0F2332
:1002D0000340083B9B0806339B00094A944663444D
:1002E0005D6803242040C000FF2214008440A54321
:1002F00089010A4082402A435A60E7E700E100E0B2
:1003000000ED00E01F2318401E3B8340014A1360AC
:100310007047C04600E100E0013880235B0498424A
:100320000FD2094A50600948036A1B021B0AC02108
:1003300009060B4303620023936007331360002018
:1003400070470120FCE7C04610E000E000ED00E04F
:10035000F0B5D6464F464646C0B582B0002338E0D9
:10036000032600E00026A64034003C4302329200FF
:100370005C4E94515C4A14684A46D24326004D466E
:10038000AE434D68ED0302D54D462C432600564C36
:1003900026606468260016404D68AD0302D54D46C0
:1003A0002C432600504C6660A468260016404D6819
:1003B000ED0202D54D462C4326004B4CA660E46866
:1003C00022404D68AD0201D54A462243464CE260C8
:1003D00001330C682200DA407DD001229A402500CA
:1003E0001540A9461442F3D04C68022C01D0122CBF
:1003F0000ED1DC080834A400275807261E40B6009A
:100400000F25B540AF430D69B5402E003E43265041
:100410000468A4465E000324A2462700B740B846FD
:10042000FF4365464446A543AC464C6855462540C7
:100430002C00B44065462C4304604C68651E012DB9
:1004400003D9112C01D0122C13D184683C40A4464E
:10045000CC68B44065462C438460446894432200D1
:100460004C682409A446012465462C409C40144352
:100470004460C26817408A68B2403A43C2604A6822
:10048000D200A5D5194CA66901221643A661A4691C
:1004900022400192019A9A08941CA400114EA75977
:1004A00003241C40A4000F26A640B7439026F6055F
:1004B000B04200D156E70E4EB04208D00D4EB042C9
:1004C00007D00D4EB04200D14AE705264BE7012682
:1004D00049E7022647E702B0E0BCBA46B146A84663
:1004E000F0BDC04600000140000401400010024081
:1004F0000004004800080048000C004803690B4253
:1005000001D0012070470020FCE7002A01D0816162
:1005100070478162FCE7000010B5041E59D04123EA
:10052000C35C002B43D041232422E2542268136889
:1005300001218B4313602268274B61680B401361D4
:100540002268936825490B409360E368012B34D0FF
:10055000226884231B02A1680B439360E368022B8B
:1005600032D0226851681E4B0B4353602268D36817
:100570001A490B40D360236962691343A2691202CE
:1005800021681343CB602268E369216A0B4313603F
:100590002268136801210B43136000236364412226
:1005A0001F31A15423630132A354002010BD4033F6
:1005B0000022C25402F06AFDB5E7226880231B02C4
:1005C000A1680B439360C9E72368802212015A6037
:1005D000C7E70120EAE7C046FFFFFFF0FF7FFFFF0C
:1005E00000800002F0B54123C35C202B20D12033D2
:1005F000C35C012B1ED04024012202554125242337
:1006000043550668336893433360066833680A4F7E
:100610003B403360066833681943316001680B68FA
:1006200013430B6020234355002303550020F0BDE6
:100630000220FCE70220FAE7FFEFFFFFF0B54123BD
:10064000C35C202B1ED12033C35C012B1CD0402463
:1006500001220255412524234355066833689343FC
:10066000336006683368094F3B4009021943316023
:1006700001680B6813430B60202343550023035587
:100680000020F0BD0220FCE70220FAE7FFF0FFFFA8
:1006900070B5041E58D0EA23FF33C35C002B1AD078
:1006A000EA23FF330322E25400226068904219D902
:1006B000D3009B1A9B00E318190029310120087010
:1006C00001390A7018002B300021017059639963B9
:1006D000D9630132E9E7E933FF330022C25402F063
:1006E0009FFDDDE7002214E0D3009B1A9B00E31876
:1006F0001D000A35FF3500212970013D2A700335A0
:10070000297009352960043529601D33FF331960CC
:1007100001329042E8D8402301222168CA520022C7
:100720002168CA524421206842520C31206842524A
:10073000064A2168CA5200221C3BE2540122EA23E5
:10074000FF33E254002070BD0120FCE700BFFFFF33
:10075000016858228B5A034803439BB28B520020F6
:100760007047C0460080FFFFF4235B00C35C012B91
:1007700013D0F4235B000122C25400290AD19D3B0F
:10078000FF3B7F320168CA52F4235B000022C2544F
:10079000002070472423C154F6E70220F9E7000047
:1007A000F0B54DB2002D2CDB7F260E40F400A41BCB
:1007B000A4000934FF3404197F2631402170ED0F65
:1007C0006570E260E370F4235B00C35C012B00D131
:1007D00052E1F4235B000122C254E378022B00D1E2
:1007E0006BE016D8002B21D0012B29D10568237886
:1007F0009B00EA5AA14911408022D2000A43EA52E2
:100800001EE07F260E40F400A41BA4002834041927
:10081000D2E7032B14D1056823789B00EA5A974945
:100820001140C022D2000A43EA5209E00568237849
:100830009B00EA5A91491140802292000A43EA52F1
:10084000016823789D004A5B8D4E324013438D4AE8
:1008500013434B53A37A002B00D07DE06378002B29
:1008600033D0A28805685023EB5A2178C9005B1861
:100870005B198021C9008C46634401218A431A8098
:10088000026823789B00D118D35A5A0603D5334007
:100890007D4A13430B800168227892008B5A7B4C6F
:1008A0002340202463409BB2764C23438B52F42395
:1008B0005B000022C2540020F0BD016823789B0039
:1008C000CA5A6E4D2A40CA52BAE7A2880568502615
:1008D000AB5B2178C9005B185B196D498C4663449A
:1008E00001218A431A8001688B5B2278D2009B1811
:1008F0005B18684A94466344E1683E2923D94A0953
:1009000092B2C90601D1013A92B2920292B2624900
:100910000A431A80026823789B00D118D35A5A04DC
:1009200004D5574A13405D4A13430B80056823786A
:100930009B00E95A5A4A1140C02292015140514A43
:100940000A43EA52B3E74A0892B2C90701D5013215
:1009500092B292021A80DDE7056823789B00EA5A7A
:1009600050491140504A0A43EA52E288056850272C
:10097000EB5B2178C9005B185B198021C9008C46AC
:1009800063440126B2431A8022890568EB5B217813
:10099000C9005B185B193E498C466344B2431A8018
:1009A0006378002B35D1026823789B00D118D35A85
:1009B0005A0404D5324A1340384A13430B80026864
:1009C00023789B00D118D35A5A0604D52C4A1340D9
:1009D0002D4A13430B80056823789B00EA5A284967
:1009E0001140294A0A43EA520568217889006B5A66
:1009F0002B4A1A40C0239B015340224A13436B5297
:100A0000056823789B00E95A204C21400A43EA52AA
:100A10004DE7026823789B00D118D35A5A0404D5B5
:100A2000174A13401D4A13430B80026823789B002A
:100A3000D118D35A5A0604D5114A1340124A134307
:100A40000B80056823789B00EA5A0D491140134A30
:100A50000A43EA520568217889006B5A0B4A134011
:100A6000084A13436B52056823789B00E95A0C4CE3
:100A700021400A43EA521AE702201DE78F89FFFF4F
:100A80000F0F00008080FFFFC080FFFFBF8FFFFFC0
:100A900004040000060400000080FFFF80C0FFFF88
:100AA0008FBFFFFF0F0E00008081FFFF30B50C00ED
:100AB0004AB2002A37DB7F212140CB005B1A9B0022
:100AC0000933FF33C3187F2121401970D20F5A70A8
:100AD000F4225200825C012A00D1ABE0F4225200E1
:100AE000012181549A7A002A3BD15A78002A22D0D7
:100AF00001681A7892008C188A5A510604D54E491A
:100B00000A404E490A43228004681B789B00E25A3F
:100B10004B4911404B4A0A43E252F4235B00002246
:100B2000C254002030BD7F212140CB005B1A9B00C6
:100B30002833C318C7E701681A7892008C188A5ABC
:100B4000510404D53C490A403F490A4322800468C5
:100B50001B789B00E25A3D4911403A4A0A43E2524F
:100B6000DBE75A78002A32D101681A7892008C1893
:100B70008A5A510404D530490A4033490A43228035
:100B800001681A7892008C188A5A510604D52A49AD
:100B90000A402A490A43228005681A789200A95A15
:100BA000254C0C4025492143A95205681C78A40016
:100BB0002A5B26490A4023490A432A5304681B78C2
:100BC0009B00E25A1E4D2A401143E152A5E70168FD
:100BD0001A7892008C188A5A510404D516490A4092
:100BE00019490A43228001681A7892008C188A5A9F
:100BF000510604D510490A4010490A43228005686D
:100C00001A789200A95A0C4C0C400F492143A95262
:100C100005681C78A4002A5B09490A4009490A436F
:100C20002A5304681B789B00E25A084D2A4011435E
:100C3000E15272E7022075E70F0F0000C080FFFF4E
:100C4000BF8FFFFF8080FFFF80C0FFFF8FBFFFFFD0
:100C500030B57F242140CC00641AA400041925007B
:100C60001935FF352A6022001D32FF321360083526
:100C700000222A60173D2A7022000932FF321170CB
:100C80001534FF342268934241D9CC00641AA40081
:100C900004191D34FF349B1A2360CB005B1A9B00A0
:100CA000C3181333FF331B78002B43D10468503330
:100CB000E55ACB005B1A9B00C3180933FF331B783E
:100CC000DB00EB181C19604B9C4664443E2A28D973
:100CD00053099BB2D20601D1013B9BB29B029BB24E
:100CE0005A4A134323800468CB00591A89004018DC
:100CF0000930FF3003789B00E15A554A1140C02269
:100D000092015140534A0A43E252002030BDCA00CA
:100D1000521A920082181D32FF32002414601A0009
:100D2000BBE753089BB2D20701D501339BB29B02AC
:100D30002380D8E7CB005B1A9B00C3180A33FF332C
:100D40001B78002B26D104685033E55ACB005B1A80
:100D50009B00C3180933FF331B78DB00EB181C1909
:100D60003D4B9C4664443E2A0BD953099BB2D506A1
:100D700001D1013B9BB29B029BB2344D2B4323809C
:100D80000AE053089BB2D50701D501339BB29B0201
:100D9000238001E0012B26D0CB005B1A9B00C318F7
:100DA0000A33FF331B78002B38D104685033E55ADF
:100DB000CB005B1A9B00C3180933FF331B78DB00A1
:100DC000EB181C19204B9C4664443E2A1DD953093C
:100DD0009BB2D20601D1013B9BB29B029BB21B4A44
:100DE000134323807FE704684F33E55ACB005B1A37
:100DF0009B00C3180933FF331B78DB00EB181C1969
:100E0000154B9C4664442280C6E753089BB2D20728
:100E100001D501339BB29B02238064E7012B00D0F4
:100E200061E704684F33E55ACB005B1A9B00C31897
:100E30000933FF331B78DB00EB181C19024B9C466F
:100E4000644422804FE7C046060400000080FFFF94
:100E50008FBFFFFF8080FFFF0204000010B50C0071
:100E6000F4235B00C35C012B47D0F4235B00012219
:100E7000C2544AB2002A1EDBCB005B1A9B00093326
:100E8000FF33C318012199707E3121401970D20FB0
:100E90005A70002917D104688900625A184B1A4009
:100EA000184B5A40184B13436352F4235B00002243
:100EB000C254002010BD7F212140CB005B1A9B0053
:100EC0002833C318DEE7002A0BD002688900535A82
:100ED0000E4C2340102463409BB20B4C23435352CF
:100EE000E3E704688900625A094B1A4080235B01DA
:100EF0005A40054B13436352D7E70220DAE7C04656
:100F0000BFBFFFFF101000008080FFFFBF8FFFFFFB
:100F10008FBFFFFF10B50C004AB2002A36DBCB00B2
:100F20005B1A9B000933FF33C318002199707F318E
:100F300021401970D20F5A70F4225200825C012AAB
:100F400045D0F4225200012181545A78002A25D03C
:100F500001681A7892008C188A5A510604D51D49E6
:100F60000A401D490A43228001681A7892008B5A70
:100F70001A4C2340302463409BB2194C23438B52BC
:100F8000F4235B000022C254002010BD7F212140C9
:100F9000CB005B1A9B002833C318C6E701681A7898
:100FA00092008C188A5A510404D50A490A400D4906
:100FB0000A43228004681B789B00E15A0A4A1140C8
:100FC000C02292015140064A0A43E252D8E7022069
:100FD000DBE7C0460F0F0000C080FFFFBF8FFFFFA1
:100FE0008080FFFF80C0FFFF8FBFFFFF10B5013380
:100FF0005B0810188022D20094466044002B08D071
:101000000C784A781202224302800231013B0230FE
:10101000F4E710BDF8B505007F240C40E100091B82
:10102000890041188A63CB6300220A640A002932CE
:1010300001201070013A14704F6BBB4233D9DB1B97
:10104000CB63E200121B9200AA1832321378002BF5
:1010500031D02A68E3001B1B9B00EB18283318785B
:101060008300D35A5B0600D485E0E3001B1B9B0082
:10107000EB1829331B78002B3ED15033D35AC000D4
:1010800018188218614B9C4662443E2F2BD97B096D
:101090009BB2F90601D1013B9BB29B029BB25C481B
:1010A000034313802AE0E200121B9200AA180021D9
:1010B000D1631F00C5E7BFB2E600361BB600AE190C
:1010C000B28D3B00B16B2868FFF790FF2A68502370
:1010D000D35A28363178C9005B189B184D4A94467C
:1010E00063441F802AE07B089BB2F90701D50133D6
:1010F0009BB29B02138001E0012B32D0E3001B1B4B
:101100009B00EB181A8EBBB2E600361BB600AE1978
:10111000B16B2868FFF76AFF29363378002B63D15B
:101120002A68E3001B1B9B00EB1828331B789B00ED
:10113000D15A3948084039490143D1522868E10061
:101140000C1BA4002D1928352A789200835A3449A3
:101150000B4030214B409BB232490B43835200205D
:10116000F8BD4F33D35AC00018188218274B9C463D
:1011700062441780C2E7E3001B1B9B00EB18293376
:101180001B78002B1ED15033D35AC0001818821878
:10119000204B9C4662443E2F0BD97B099BB2F9063B
:1011A00001D1013B9BB29B029BB2194803431380C0
:1011B0000AE07B089BB2F90701D501339BB29B0281
:1011C000138001E0012B05D0E3001B1B9B00EB18F3
:1011D000DA8D98E74F33D35AC000181882180D4B98
:1011E0009C4662441780EFE7012BA7D12A68E300F1
:1011F0001B1B9B00EB1828331B789B00D15A064819
:10120000084009490143D15298E7C046060400004E
:101210000080FFFF020400000F0F0000C080FFFFEE
:10122000BF8FFFFF8080FFFF80C0FFFF10B55C080D
:1012300010188022D20094466044002C07D0028807
:101240000A70120A4A70013C02300231F5E7DB07EE
:1012500001D503880B7010BDF0B583B0040001AB5D
:1012600000221A80B4E10388AA4A1340038021684F
:101270005023CB5A2822A25CD2009B185B18A64AA6
:10128000944663441B889B059B0D2364A26B944684
:101290006344A3630021200001F0FBFF2423E35CEF
:1012A000002B00D194E1E36B002B00D090E12422CD
:1012B000A35C802149420B43DBB2CC31206843520E
:1012C0000023A35484E15023C35A84225200A25C19
:1012D000D2009B181B18914A944663441B889B05B7
:1012E0009B0D22000932FF3293612100ED31FF3165
:1012F0009288FFF79BFF2268138889490B4013806F
:10130000200001F0ADFF63E1150092882969FFF725
:101310008DFF2B69AA69944663442B6196E14B08C3
:101320009BB2C90701D501339BB29B021380AAE18E
:10133000AE008119825B01AB1A801B881BB2002BA7
:101340002EDB01AB1B881B0600D441E12268935BB6
:1013500070490B409353EB005B1B9B00E318323347
:101360001B78002B00D0E1E020685033C35AEA001C
:10137000521B9200A218110028310978C9005B188D
:101380001B1865498C4663441B889B059B0D1364A1
:1013900000D1F8E01100928D896BFFF727FEF2E093
:1013A0005F4B1A400A80EB005B1B9B00E318133372
:1013B000FF331B78002B23D120685033C25AEB0037
:1013C0005B1B9B00E3180933FF331B78DB00D3184A
:1013D0001B18524A944663441B889B059F0D002BA3
:1013E00036D0EB005B1B9B00E3181A000D32FF3276
:1013F00012881933FF3319683B00FFF717FF27E006
:101400002068EB005B1B9B00E3180933FF331B785C
:101410009A00825A520455D55022825ADB00D318C2
:101420001B183D4A944663441B889B059F0D002B67
:1014300039D12268EB005B1B9B00E3180933FF33B3
:101440001B789B00D15A3748084037490143D15295
:101450003800E900491B890061180A002132FF3277
:101460001368DB1913600B001933FF331A689446B5
:1014700067441F601D31FF310B68002B08D0E90065
:10148000491B890061181531FF310A68904235D235
:10149000EB005B1B9B00E3180933FF331978200036
:1014A00001F0E8FE4DE7EB005B1B9B00E3181A0020
:1014B0000F32FF3212881933FF3319683B00FFF7F0
:1014C000B5FEB6E75022825ADB00D3181B18134A28
:1014D000944663441B889B059F0D002BA9D0EB000D
:1014E0005B1B9B00E3181A001132FF32128819337C
:1014F000FF3319683B00FFF799FE9AE7EA00521B99
:101500009200A2180932FF3211783A002000FFF74A
:101510009FFB16E70F8FFFFF020400000604000088
:101520008F0F00000F0F0000C080FFFF2068EB004E
:101530005B1B9B00E31828331B789A00825A5206E3
:1015400000D4B1E05022825ADB00D3181B18694A3C
:10155000944663441B889B059B0DEA00521B920036
:10156000A2181364002B00D098E02268EB005B1BEC
:101570009B00E31828331B789B00D15A5E48084033
:101580005E490143D15221685023CA5AEB005B1BCC
:101590009B00E318180028300078C0001218521879
:1015A00054498C46624412889205920D1A64996BD4
:1015B0008C4662449A63DB6B002B00D08DE0EB001D
:1015C0005B1B9B00E31828331978200001F061FEB3
:1015D00020684423C35A9BB26A46D3801BB2002BB7
:1015E00000DB84E06B46DA880F2315001D401A42A9
:1015F00000D09DE66B4606331B88DB0600D432E63E
:10160000028801AB1A801B881B0500D55BE601AB85
:101610001B881BB2002BDBDA0388394A1340038096
:1016200020685023C35A84225200A25CD2009B1827
:101630001B18344A944663441B889B059B0D22006B
:101640000932FF329361002B00D05DE600212000BB
:1016500001F010FE236850229A5A9A18294B9C4692
:10166000624423000933FF33D9683E2900D856E687
:101670004B099BB2C90601D1013B9BB29B029BB2B5
:1016800021490B43138021680A88204B1A40C0234C
:101690009B015A401E4B13430B8099E71100D28DDA
:1016A000896BFFF7A3FC60E75022825ADB00D31856
:1016B0001B18144A944663441B889B059B0DEA0043
:1016C000521B9200A2181364002B00D14DE71100A9
:1016D000128E896BFFF78AFC47E7E900491B8900F6
:1016E0006118283109782000FFF794FC70E700208A
:1016F00003B0F0BD020400000F0F000080C0FFFF28
:101700008F0F0000060400000080FFFF8FBFFFFF67
:101710008080FFFF70B5040044230268D35A1BB2D7
:10172000002B48DB236844229A5A520546D423688A
:1017300044229A5A520404D544215A5A3548024048
:101740005A52236844229A5A920404D544215A5A80
:10175000314802405A52236844229A5AD2043AD459
:10176000236844229A5A120515D544215A5A2B4807
:1017700002405A5220684022835A08252B439BB2CC
:1017800083522068835A04252B439BB283522368DB
:101790005B5ADB0431D5236844229A5A920530D42F
:1017A000236844229A5AD20504D544215A5A1C4827
:1017B00002405A5270BDFFF74FFDB3E744215A5A19
:1017C000184802405A52200001F077FD0021200005
:1017D000FEF7CAFFABE74022995A04208143995291
:1017E000114B21688B52200001F086FD21684422B4
:1017F0008B5A0E4803408B52B2E7200001F06AFD7D
:10180000C9E744215A5A0A4802405A52200001F0BE
:101810004DFDC5E7FFBFFFFFFFDFFFFFFFF7FFFF46
:10182000FFFEFFFFFFFBFFFF00BDFFFFFFEFFFFF1E
:10183000FFFDFFFF10B50C060CD57F242140CC0026
:10184000611A890028314018002A0AD182728380E7
:10185000002010BDCC00611A89000931FF31401809
:10186000F2E701228272C3801B0C0381F0E70000C3
:1018700070B582B004000368DB072BD5B34B5A6800
:101880000C231340042B1DD0B04B5A680C2313407B
:10189000082B0ED06368012B41D0002B56D1AB4BE7
:1018A0001A68AB490A401A601A68AA490A401A60C5
:1018B0003BE0A64B5B68C0225202134080225202DA
:1018C0009342E7D1A14B1B689B0303D56368002BB0
:1018D00000D1F1E123689B0777D59C4B5B680C2214
:1018E0001A4262D0994B5A680C231340082B53D0EC
:1018F000E368002B00D18AE0944A136801210B436E
:101900001360FEF7B7FC0500904B1B689B0775D46E
:10191000FEF7B0FC401B0228F6D90320D1E18B4A28
:10192000116880235B020B4313606368002B25D092
:10193000FEF7A0FC0500854B1B689B03CAD4FEF78D
:1019400099FC401B6428F6D90320BAE1052B09D085
:101950007E4B1A687E490A401A601A687D490A401F
:101960001A60E2E7794B19688022D2020A431A60B2
:101970001968802252020A431A60D6E7FEF77AFC01
:101980000500724B1B689B03A4D5FEF773FC401B3C
:101990006428F6D9032094E16C4B5B68C0225202A4
:1019A0001340802212029342A2D1684B1B689B070E
:1019B00003D5E368012B00D080E164490B68F8226D
:1019C00093432269D20013430B6023681B0744D55D
:1019D000E369002B2ED05D4A536A01210B43536209
:1019E000FEF748FC0500594B5B6A9B0735D4FEF7B0
:1019F00041FC401B0228F6D9032062E153490B68E1
:101A0000F82293432269D20013430B60DDE74F4A6B
:101A1000136801218B431360FEF72CFC05004B4B30
:101A20001B689B07D1D5FEF725FC401B0228F6D981
:101A3000032046E1454A536A01218B435362FEF776
:101A400019FC0500414B5B6A9B0706D5FEF712FCAB
:101A5000401B0228F6D9032033E123685B0700D43A
:101A600080E03A4BDB69DB000BD4384AD169802037
:101A700040050143D161D36903400193019B0125D6
:101A800000E00025344B1B68DB050ED5A368012B55
:101A90001FD0002B34D12D4B1A6A01218A431A62C0
:101AA0001A6A03318A431A6218E02B4A11688023AC
:101AB0005B000B431360FEF7DDFB0600264B1B6843
:101AC000DB05E3D4FEF7D6FB801B6428F6D90320A0
:101AD000F7E01E4A136A01210B431362A368002B2F
:101AE00024D0FEF7C7FB0600184B1B6A9B0737D4B0
:101AF000FEF7C0FB801B194B9842F5D90320E0E0AC
:101B0000052B09D0114B1A6A01218A431A621A6AFD
:101B100003318A431A62E1E70C4B1A6A04210A4333
:101B20001A621A6A03390A431A62D7E7FEF7A2FB60
:101B30000600064B1B6A9B0712D5FEF79BFB801B1A
:101B4000064B9842F5D90320BBE0C0460010024086
:101B5000FFFFFEFFFFFFFBFF007000408813000047
:101B6000012D33D02368DB0610D56369012B33D0F8
:101B7000053351D1554A536B04218B435363536B47
:101B8000F4318B43A169C9000B435363236A002BD3
:101B900000D195E04D4A51680C220A40082A00D134
:101BA00091E0022B4FD0494A136849490B4013601A
:101BB000FEF760FB0400454B1B689B017AD5FEF7DE
:101BC00059FB001B0228F6D903207AE03F4AD3696B
:101BD00040490B40D361C5E73C4B5A6B04210A4393
:101BE0005A635A6B03390A435A63FEF743FB0500F5
:101BF000364B5B6B9B0706D4FEF73CFB401B022871
:101C0000F6D903205DE031494B6BF8229343A2697A
:101C1000D20013434B63B9E72C4B5A6B04210A43A0
:101C20005A635A6B03398A435A63FEF723FB050054
:101C3000264B5B6B9B07A9D5FEF71CFB401B0228BC
:101C4000F6D903203DE0214A136821490B40136077
:101C5000FEF710FB05001D4B1B689B0106D5FEF728
:101C600009FB401B0228F6D903202AE0174BDA6A49
:101C70000F218A43E16A0A43DA625A6816490A4028
:101C8000A16A606A01430A435A60196880225204BB
:101C90000A431A60FEF7EEFA04000C4B1B689B0126
:101CA00006D4FEF7E7FA001B0228F6D9032008E065
:101CB000002006E0002004E0012002E0012000E016
:101CC000002002B070BD0120FBE7C04600100240BA
:101CD000FFFFFFFEFFFFFFEFFF7FC2FF10B588B0E1
:101CE00004AA174B13CB13C21B6813606A46154B2B
:101CF00013CB13C21B681360134B5A680C23134099
:101D0000082B02D0114808B010BD910C07331940C0
:101D100004A8445C0C49C96A0B406946C95CC023ED
:101D20005B021A4080235B029A4204D00748FEF708
:101D3000EBF96043E7E70548FEF7E6F96043E2E7C1
:101D4000283700083C3700080010024000127A00D3
:101D500070B504000D004E4B1A68012313408B42EE
:101D60000AD24B490B68012293432B430B600B684B
:101D70001A40AA4200D084E023689B0706D5454A52
:101D80005368F0218B43A1680B4353602368DB0742
:101D90004CD56368012B21D0022B25D03D4A126817
:101DA000920700D46FE03B494A6803208243134303
:101DB0004B60FEF75FFA06006368012B1AD0022B16
:101DC00026D0344B5B680C221A422FD0FEF752FA11
:101DD000801B314A9042F4D9032051E02D4A126809
:101DE0009203E0D401204BE02A4A12689201DAD42F
:101DF000012045E0274B5A680C231340042B15D0D3
:101E0000FEF738FA801B244A9042F3D9032037E0CA
:101E1000204B5A680C231340082B07D0FEF72AFAF0
:101E2000801B1D4B9842F3D9032029E0184B1A68F8
:101E300001231340AB4209D915490B680122934392
:101E40002B430B600B681A40AA421ED123685B0724
:101E500006D5104A536811490B40E1680B435360A3
:101E6000FFF73CFF0B4B5A6812090F2313400C4A33
:101E7000D35CD8400B4B18600020FEF7D1F900204E
:101E800070BD0120FCE70120FAE70120F8E7C04619
:101E9000002002400010024088130000FFF8FFFFFE
:101EA00010370008B0010020014B18687047C04689
:101EB000B001002010B5FFF7F7FF044B5A68120A73
:101EC00007231340024AD35CD84010BD00100240E3
:101ED0002037000870B582B004000368DB0337D5F3
:101EE000424BDB69DB0053D4404AD1698020400576
:101EF0000143D161D36903400193019B01253C4B10
:101F00001B68DB0546D5394B1A6AC0239B001100BC
:101F100019401A4213D0626813408B420FD0334BE2
:101F2000186A344A02401E6A80214902314319620C
:101F3000196A314E314019621A62C3073ED42B4AE6
:101F4000136A2C490B4061680B431362012D44D086
:101F50002368DB0706D5254A136B03218B43A16851
:101F60000B43136323689B0606D5204A136B10218D
:101F70008B43E1680B43136323689B0332D51B4AF1
:101F8000136B80218B4321690B43136300202AE0EC
:101F90000025B4E7164A116880235B000B431360E9
:101FA000FEF768F90600124B1B68DB05ABD4FEF7A1
:101FB00061F9801B6428F6D9032014E0FEF75AF972
:101FC00006000A4B1B6A9B07B9D4FEF753F9801B26
:101FD0000A4B9842F5D9032005E0D36908490B4024
:101FE000D361B5E7002002B070BDC04600100240CA
:101FF00000700040FFFCFFFFFFFFFEFF88130000A2
:10200000FFFFFFEF00234364412201218154013A85
:10201000835400207047000010B5040083680269F3
:10202000134342691343802212021A4301680B686A
:102030003748034013430B60A369E26913438022CE
:1020400012011A43236AE1680B431A4321684B6863
:102050003048034013434B6023682F4A93420BD010
:102060002E4A93423BD02E4A934238D02D4A934277
:1020700035D0002301203DE02B4B1A6B0323134086
:10208000022B20D012D8002B29D0012B0BD1FFF727
:1020900025FE400063685B08C0186168FEF734F8ED
:1020A00083B2002026E00023012023E0032B2BD164
:1020B000636858081D4B9C4660446168FEF724F82D
:1020C00083B2002016E06368580880235B029C46B8
:1020D00060446168FEF718F883B200200AE0FFF759
:1020E000E9FE400063685B08C0186168FEF70CF801
:1020F00083B200200F22190091435B10083A13406D
:102100000B432268D36010BD00230120F2E7C046D4
:10211000F369FFEFFFC0FFFF0038014000440040BB
:1021200000480040004C0040001002400024F40031
:1021300010B5041E24D04123C35C002B1AD04123C8
:102140000222E2542268136801218B4313602000AD
:10215000FFF762FF01280CD02268936808218B43A7
:1021600093602268136807390B4313602000FFF760
:1021700049FF10BD40330022C25400F0BDFFDEE72E
:102180000120F6E72223038000487047000000206A
:1021900086239B00C35800221A730020704700005A
:1021A0000A230380014824307047C0460000002005
:1021B00070B586239B00C5580B78602214001C4024
:1021C0001A4224D0202C4ED14B780A2B10D009D89B
:1021D000022B12D0032B16D10122290000F0A1FC02
:1021E000002441E00B2B0ED18B782B6000243BE0C8
:1021F0004B881B0A6B60002436E0291D012200F089
:1022000090FC002430E000F0FEF902242CE04B7832
:102210000A2B1FD00B2B23D0062B25D14B881B0A52
:10222000222B06D0212B0CD00021002200F079FCBB
:102230001AE0CB881A1CBB2B00D9BB2292B20B49E7
:10224000F4E7CB881A1C092B00D9092292B208495D
:102250003031EBE729000831012200F062FC03E095
:102260008B78AB6000E00024200070BD3C000020B3
:102270000000002010B50400812101F0AEF8862393
:102280009B00E058002805D001F02AF986239B0026
:102290000022E250002010BD10B5040008230322E4
:1022A000812101F086F8102001F016F986239B00A9
:1022B000E050002803D000230373002010BD01204C
:1022C000FCE710B58624A40003591C3C045D032CD4
:1022D00001D0002010BD1C7B002CFAD101341C73EE
:1022E00013000A00812101F0D5F8F2E710B50028AB
:1022F00016D085239B00C358002B03D085239B0059
:102300000024C450002902D084239B00C150FE2326
:102310005B000121C154027001F004F8002010BDDF
:102320000220FCE7002904D085239B00C150002037
:1023300070470220FCE710B501F02AF8002010BD1C
:1023400010B585239B00C358002B06D01B68984707
:10235000002800D110BD0220FCE70220FAE710B5EA
:1023600085239B00C3585B689847002010BD000080
:1023700070B5040082239B00C518280000F02FF9D7
:10238000FA235B000122E250124BE25A163BE25064
:102390001033E15CEA3BFF3B0B40012B0FD0022BDB
:1023A00012D0002B05D07F239943200001F026F89E
:1023B00003E02900200000F0B5FA002070BD2900DC
:1023C000200000F0D3FAF8E72900200000F0ECFA32
:1023D000F3E7C0460E02000010B504001300002908
:1023E0002AD1FA2252008258032A01D0002010BDBF
:1023F000421DFF329168D26891420ED885239B001E
:10240000C3581B69002B04D0FE225200825C032AB1
:1024100010D0200000F0A3FBE8E7891A0530FF3058
:1024200081608A4200D90A0092B21900200000F0AF
:102430008EFBDBE79847ECE785239B00C3589B693D
:10244000002BD3D0FE225200825C032ACED19847C3
:10245000CCE770B50400130000294FD1FA225200D6
:102460008258022A06D080239B00E35C012B40D0D7
:10247000002070BDC269056AAA421CD8866929007D
:102480003000FDF7C7FE002906D1B54204D8FC2371
:102490005B00E3589E421BD385239B00E358DB6817
:1024A000002B04D0FE225200A25C032A1ED0200082
:1024B00000F061FBD7E7521BC26192B2190000F035
:1024C0003EFB002300220021200000F0F4FFCAE7B9
:1024D0000022200000F033FBFC235B000022E250CE
:1024E00000230021200000F0E6FFBCE72000984711
:1024F000DDE780239B000022E254B9E785239B009F
:10250000C3585B69002BB3D0FE225200825C032AC1
:10251000AED19847ACE770B50400402300220021FB
:1025200000F047FF402588235B00E550D03B0022A8
:102530008021200000F03DFF2562FE235B00012288
:10254000E2541C33E358002B06D085239B00E3584C
:102550005B68217920009847002070BD017400203D
:102560007047FE235B00C15CFE22FF328154FA3AC1
:10257000FF3AC25400207047FE23FF33C25C013B88
:10258000C2540020704710B5FE235B00C35C032BD0
:1025900001D0002010BD85239B00C358DB69002BB0
:1025A000F7D09847F5E7030000201A78002A03D0F7
:1025B0000130C0B20133F8E7704710B504004B8812
:1025C000012B00D010BD81239B000122C25010338B
:1025D000C3589B689847200000F0C1FAF2E70B78D7
:1025E00003704B7843708B78CA7812029B18438033
:1025F0000B794A7912029B1883808B79CA7912026F
:102600009B18C380704710B50400802100F0F6FECF
:102610000021200000F0F2FE10BD000030B583B0B4
:1026200004000D004A88130A072B00D98EE09B0096
:102630004F49CB589F4684239B00C3581B68007C9E
:102640006A46911D98476B4606331B88002B03D0C2
:10265000EA88002A00D07EE003B030BD037C002B66
:1026600009D185239B00C3589B6A6A46901D9847F1
:1026700002234370E7E785239B00C358DB6A6A4661
:10268000901D984702234370DDE7D2B2052A39D85E
:102690009200384B9B589F4684239B00C3585B682D
:1026A000007C6A46911D9847CDE784239B00C35860
:1026B0009B68007C6A46911D9847C4E784239B0071
:1026C000C358DB68007C6A46911D9847BBE78423AA
:1026D0009B00C3581B69007C6A46911D9847B2E76E
:1026E00084239B00C3585B69007C6A46911D984710
:1026F000A9E784239B00C3589B69007C6A46911D0F
:102700009847A0E72900FFF77EFFA5E7037C002B91
:1027100007D185239B00C3585B6B6A46901D984781
:1027200091E72900FFF76FFF96E7037C002B09D1A3
:1027300085239B00C3581B6B6A46901D984707234F
:10274000437080E72900FFF75EFF85E7290020003E
:10275000FFF759FF80E7191C934200D9111C8AB278
:102760006B46D9800100200000F0DBF974E7C04619
:1027700080360008A036000870B504008B88002B56
:1027800022D1CB88002B1FD18B787F251D40FE23C3
:102790005B00C35C032B0FD0FF235B00C5542900F3
:1027A00000F067FE200000F0DAF9002D07D0FE23CC
:1027B0005B000222E2540AE0FFF725FF07E0FE2358
:1027C0005B000122E25402E02000FFF71CFF70BD15
:1027D00070B504000D008978284B197001290AD8BA
:1027E000FE235B00C35C022B09D0032B1ED0290003
:1027F000FFF709FF02E02900FFF705FF70BD002980
:1028000011D04160FE235B000322C254FFF798FD04
:10281000022803D0200000F0A2F9EFE729002000F1
:10282000FFF7F1FEEAE700F09AF9E7E7002911D097
:10283000436899421ED0D9B2FFF791FD0F4B19782A
:1028400061602000FFF77CFD02280ED0200000F020
:1028500086F9D3E7FE235B000222C2544160FFF7F2
:102860007EFD200000F07BF9C8E729002000FFF77B
:10287000CAFEC3E700F073F9C0E7C04604020020B7
:1028800010B5CB88012B09D1FE235B00C35C022B62
:1028900007D0032B0DD0FFF7B6FE01E0FFF7B3FE24
:1028A00010BD0023836001000831012200F039F9D6
:1028B000F6E7011D012200F034F9F1E710B5FE231F
:1028C0005B00C35C023B012B0ED80123C360812354
:1028D0009B00C358002B01D00323C36001000C31BF
:1028E000022200F01EF910BDFFF78DFEFBE710B5C8
:1028F0000400FE235B00C35C023B012B0ED84B8817
:10290000012B0DD181239B000022C2501033C358EC
:102910009B689847200000F022F901E0FFF773FE62
:1029200010BD000010B54B78092B19D89B000E4A3A
:10293000D3589F46FFF772FE002010BDFFF71CFF23
:10294000FAE7FFF745FFF7E7FFF79AFFF4E7FFF72E
:10295000B5FFF1E7FFF731FEEEE7FFF7C8FFEBE762
:10296000FFF751FEE8E7C046B836000870B504002E
:102970000D00FE235B00C35C032B11D10B79012BEF
:102980000BD885239B00C3589B689847EB88002B86
:1029900008D1200000F0E3F804E0FFF734FE01E086
:1029A000FFF731FE002070BD70B505000C0088886F
:1029B0000979227860231340202B08D06378012BFB
:1029C00037D0032B0BD0002B5BD0002070BDF5332C
:1029D000FF33EB589B68210028009847F5E7FE235A
:1029E0005B00EB5C022B06D0032B0CD021002800EF
:1029F000FFF709FEE9E70029E7D08029E5D02800A4
:102A000000F0FCFCE1E76388002B03D1002901D032
:102A100080290AD185239B00EB589B682100280060
:102A20009847280000F09BF8CFE7280000F0E6FC6C
:102A3000F0E7FE235B00EB5C022B06D0032B0CD0EF
:102A400021002800FFF7DFFDBFE70029BDD0802966
:102A5000BBD0280000F0D2FCB7E76388002BB4D1CC
:102A60004B0603D1280000F07AF8AEE7280000F00A
:102A7000D6FC85239B00EB589B68210028009847D3
:102A8000F0E7FE235B00EB5C022B06D0032B0BD0A0
:102A900021002800FFF7B7FD97E74B0600D194E728
:102AA000280000F0ABFC90E7030612D47F240C4012
:102AB000103424012C190434280000F0C1FC002833
:102AC0000ED00123236002222100280000F029F803
:102AD0007BE77F240C40013424012C190434EBE7FC
:102AE00000232360EFE770B504000D0016000028F6
:102AF00016D0FFF758FD431C5B009BB233802B7050
:102B000003236B70013B08E001345A1CD2B2E85435
:102B10000233DBB2AA180021117020780028F3D10B
:102B200070BD10B51300FA22520002248450836154
:102B3000C3610A00002100F0ADFC002010BD10B5FB
:102B400013000A00002100F0A5FC002010BD10B504
:102B500013000A00002100F0AEFC002010BD10B5EB
:102B6000FA235B000422C25000230022002100F05F
:102B700091FC002010BD10B5FA235B000522C25065
:102B800000230022002100F096FC002010BD10B5AB
:102B900003000120884202DA04330130FAE7002002
:102BA00001E004330131914205DA1C68002CF8D1B0
:102BB000481E0821F5E710BDF0B5D6464F464646FB
:102BC000C0B58AB01422002105A800F045FD404B95
:102BD000596980200003014359615A6902400192FA
:102BE000019A59698020C003014359615A69024022
:102BF0000292029A596980208002014359615A6900
:102C000002400392039A5A698021C9020A435A6119
:102C10005B690B400493049BE02424022D4B9A46ED
:102C2000002221001800FDF770FC9026F605012215
:102C300003213000FDF769FC274B9946002219005B
:102C40003000FDF762FCF3231B029846234F01225C
:102C500019003800FDF759FC05940125069500245C
:102C60000794089405A95046FDF772FB03230593CA
:102C70000695013B0793089405A93000FDF768FB12
:102C80003C2305930694079405A93000FDF760FBEB
:102C90004B46059306950794089405A93000FDF767
:102CA00057FBFF2305930694079505A93800FDF708
:102CB0004FFB4346059306950794089405A93800F1
:102CC000FDF746FB0AB0E0BCBA46B146A846F0BDE7
:102CD0000010024000080048C080000000040048C6
:102CE00010B50948094B036096231B02436000237B
:102CF0008360C36003610C2242618361C36103622C
:102D0000FFF716FA10BDC0466C02002000380140E3
:102D100010B50D4C0D4B23600D4B63600023A36079
:102D20000122E26023616361A361E3612362200009
:102D3000FDF7F2FB00212000FDF754FC00212000EC
:102D4000FDF77CFC10BDC04620020020005800406A
:102D50005D3E302070B586B0060004A9144B1A0001
:102D600011CA11C102A911CA11C16A4603CB03C21B
:102D7000002414E0A3009B5904A9CB700D4D082238
:102D80002800FFF79EFA0A20FDF77AFA0822694622
:102D90002800FFF796FA0A20FDF772FA0134032C97
:102DA000E8DD082202A90348FFF78BFA06B070BDE0
:102DB000E0360008B402002030B597B01822002198
:102DC0000CA800F049FC1022002106A800F044FCE9
:102DD0001422002101A800F03FFC01230A930B9369
:102DE0000225129580235B02139380235B031493C7
:102DF000002415940AA8FEF73BFD072306930795C8
:102E000008940994012106A8FEF7A2FF044B019340
:102E100003948023059301A8FFF75CF817B030BD39
:102E20000100020070B5A2B01AA9884C230010332B
:102E30000A0023CB23C223CB23C203CB03C2FDF75B
:102E400001FAFFF7B9FFFFF7B7FEFFF749FFFFF7FA
:102E50005FFF00F0CBF92022002112A800F0FCFB5C
:102E6000202200210AA800F0F7FB08AA08340ACCA7
:102E70000AC29024E405002201212000FDF745FB51
:102E8000002202212000FDF740FB13E08A006B4680
:102E9000D3580120434012A81350ED1813580AA824
:102EA00012589B1A5A1E9341E41801310729EDDD8F
:102EB0002C4363D1664C01212000FDF71FFB0090DD
:102EC00002212000FDF71AFB019004212000FDF7EC
:102ED00015FB029008212000FDF710FB0390102144
:102EE0002000FDF70BFB049020212000FDF706FBDE
:102EF000059040212000FDF701FB06908021200075
:102F0000FDF7FCFA0790002100250024CEE7A3007E
:102F10000AAA9B58002B25D1A3001AAA9E5808ADD7
:102F2000082204212800FFF732FE2E541AE0013552
:102F3000072D0FDC08AB5A5DA3001AA95B589A4213
:102F4000F5D108AB00225A5590200121C005FDF7AC
:102F5000DCFAECE70134072C12DCA30012AA9B5820
:102F6000012BD4D0A30012AA9B58002BF2D1A300AE
:102F70000AAA9B58012BEDD10425D9E70024EAE7E2
:102F8000129B012B16D0139B012B1AD0149B012BE3
:102F90001FD0159B012B24D0169B012B29D0179BEA
:102FA000012B2ED0189B012B33D0199B012B38D02D
:102FB000002344E00A9B002BE5D12648FFF7CAFE18
:102FC000E1E70B9B002BE1D122481030FFF7C2FE56
:102FD000DCE70C9B002BDCD11E482030FFF7BAFE4B
:102FE000D7E70D9B002BD7D11A483030FFF7B2FE40
:102FF000D2E70E9B002BD2D116484030FFF7AAFE35
:10300000CDE70F9B002BCDD112485030FFF7A2FE29
:10301000C8E7109B002BC8D10E486030FFF79AFE1E
:10302000C3E7119B002BC3D10A487030FFF792FE13
:10303000BEE79A0012A950580AA950500133072B35
:10304000F7DD1420FDF71CF934E7C046E036000830
:1030500000040048300100207047000082B00A4B95
:10306000996901221143996199690A400092009A75
:10307000DA69802149050A43DA61DB690B40019373
:10308000019B02B07047C0460010024010B588B0E6
:1030900004001422002103A800F0DEFA2268134B7A
:1030A0009A4201D008B010BD114C62698021C9025A
:1030B0000A43626163690B400193019BC0231B01BA
:1030C000039312230493113B059303220692079363
:1030D00003A90848FDF73CF9E2698021C9030A43C6
:1030E000E261E3690B400293029BDBE7005800407A
:1030F000001002400004004810B588B004001422FB
:10310000002103A800F0A8FA2268144B9A4201D0CB
:1031100008B010BD124B99698020C001014399612C
:103120009A6902400192019A5A69802189020A43F0
:103130005A615B690B400293029BE023DB0003931F
:10314000022304930023059303330693023B079362
:10315000902003A9C005FDF7FBF8D9E7003801402E
:10316000001002407047FEE77047704710B5FDF74A
:1031700079F810BD10B50248FEF7CCFA10BDC04674
:10318000D8040020134B1A6801210A431A605A68B8
:10319000114802405A601A68104802401A601A68C2
:1031A0000F4802401A605A680E4802405A60DA6AB4
:1031B0000F208243DA621A6B0B4802401A631A6BC3
:1031C000802002431A635A6B8A435A6300229A6032
:1031D0007047C046001002400CB8FF08FFFFF6FE23
:1031E000FFFFFBFFFFFFC0FF6CFEFFFF10B5074CAA
:1031F000002207492000FFF779F806492000FFF771
:1032000091F82000FFF797F810BDC046B4020020E7
:10321000CC010020F800002010B5FFF7CDFD10BD57
:1032200000B583B002680C4B9A4201D003B000BDD8
:103230000A4AD169802000040143D161D369034067
:103240000193019B002200211F20FDF72BF81F2076
:10325000FDF758F8EAE7C046005C00400010024065
:1032600010B5010087239B00C058ED31FF31FFF7F7
:103270007FF810BD10B50300872292008058CA0065
:10328000521A92009B181933FF331A68FFF7A4F8FB
:1032900010BD10B50300872292008058CA00521A50
:1032A00092009B189A6BFFF7D4F810BD10B58723D6
:1032B0009B00C058FFF767F910BD70B50400872563
:1032C000AD0001214059FFF749F96059FFF723F993
:1032D00070BD000010B5040087239B00C058FFF7A5
:1032E00040F9A369002B04D0024A136906210B435D
:1032F000136110BD00ED00E010B504008369002BE0
:1033000005D187239B00E058FFF736F910BD044A2A
:10331000136906218B431361FFF77EFFF1E7C04677
:1033200000ED00E070B50400174887239B00C450EF
:103330000433E050154B036008234360022282608F
:103340000023C36002618361C3610362FDF7A0F9DA
:10335000002816D18825AD001823002200216059CD
:10336000FEF768FA5823002280216059FEF762FABE
:10337000605980235B0000228121FEF75BFA002068
:1033800070BDFFF769FEE5E7D8040020005C00404F
:1033900010B588239B00C058FDF7DAF9022804D045
:1033A00005D8002800D0022010BD0120FCE7022033
:1033B000FAE710B514001A0088239B00C0582300B8
:1033C000FDF7EEF9022804D005D8002800D002202D
:1033D00010BD0120FCE70220FAE710B588239B000E
:1033E000C058FDF763FB022804D005D8002800D0A0
:1033F000022010BD0120FCE70220FAE710B5882367
:103400009B00C058FDF72AFD022804D005D80028EB
:1034100000D0022010BD0120FCE70220FAE710B521
:1034200088239B00C058FDF775FD022804D005D8FD
:10343000002800D0022010BD0120FCE70220FAE79E
:1034400088239B00C3584AB2002A09DB7F2211401F
:10345000CA00511A89005B180B33FF331878704784
:103460007F221140CA00511A89005B182A3318784C
:10347000F5E710B588239B00C058FDF775F90228C1
:1034800004D005D8002800D0022010BD0120FCE7A0
:103490000220FAE710B58824A4000059FDF7BAFD10
:1034A000022804D005D8002800D0022010BD012039
:1034B000FCE70220FAE710B58824A4000059FDF7C4
:1034C000C7FB022804D005D8002800D0022010BD78
:1034D0000120FCE70220FAE70048704708020020BC
:1034E0007047000012230B8000487047B401002091
:1034F00004230B80014814307047C046B4010020FB
:1035000010B50A00002805D105490648FFF7EBFA77
:10351000034810BD02490348FFF7E5FAF8E7C04643
:10352000F80600205037000810B50A00034C2100AF
:103530000348FFF7D8FA200010BDC046F806002067
:103540006837000810B50A00002805D1054906486B
:10355000FFF7C9FA034810BD02490348FFF7C3FA51
:10356000F8E7C046F80600207C37000810B50A00CE
:10357000002805D105490648FFF7B5FA034810BDF4
:1035800002490348FFF7AFFAF8E7C046F806002003
:103590008C37000810B50A00002805D105490648F7
:1035A000FFF7A1FA034810BD02490348FFF79BFA51
:1035B000F8E7C046F8060020983700080D48854611
:1035C0000D480E490E4A002302E0D458C45004337B
:1035D000C4188C42F9D30B4A0B4C002301E0136052
:1035E0000432A242FBD3FFF7CDFD00F011F8FFF744
:1035F00019FCFEE70040002000000020E801002048
:10360000B0370008E8010020F8080020FEE70000BD
:1036100070B500260C4D0D4C641BA410A64209D1B8
:10362000002600F021F80A4D0A4C641BA410A642A3
:1036300005D170BDB300EB5898470136EEE7B300F3
:10364000EB5898470136F2E7A8370008A83700087A
:10365000A8370008AC37000803008218934200D155
:10366000704719700133F9E7F8B5C046F8BC08BCDB
:103670009E467047F8B5C046F8BC08BC9E467047E9
:103680004C270008362600085C2600088A26000819
:103690004C2700084C2700080C2700082A270008A0
:1036A00098260008AA260008BC260008CE26000896
:1036B000E0260008F22600084E2900085A290008D2
:1036C0006029000854290008602900083C290008E6
:1036D0003429000860290008482900084229000808
:1036E00001040000000000000100000000000000D4
:1036F0001E0000001F00000020000000210000004C
:103700002900000023000000500000004F000000CE
:103710000000000000000000010203040607080981
:103720000000000001020304020304050607080963
:103730000A0B0C0D0E0F1010000000000102030414
:1037400005060708090A0B0C0D0E0F1000000000FB
:1037500053544D33322048756D616E20696E746527
:10376000726661636500000053544D6963726F6552
:103770006C656374726F6E69637300003030303053
:1037800030303030303031410000000048494420B2
:10379000436F6E666967000048494420496E74654E
:0837A000726661636500000020
:0437A800E90000082C
:0437AC00C100000850
:1037B00009022200010100E03209040000010301B6
:1037C000010009211101000122BB00070581030846
:1037D000000A00000A06000200000040010000008C
:1037E00009211101000122BB0000000005010906AA
:1037F000A1018501050719E029E7150025017501DB
:103800009508810275089501810105071900296550
:1038100015002565750895058100C0050C0901A1F5
:1038200001850219002A3C021500263C029501750B
:10383000108100C005010980A10185031981298338
:103840001500250175019503810295058101C006CA
:1038500001FF0901A1018504950175081501250ADB
:103860000920B1030923B103254F0921B1032530F4
:103870000922B10395030924B103C00601FF090120
:10388000A1018505950175081501250A0920B103D7
:103890000923B103254F0921B10325300922B103C2
:1038A00095030924B103C00099220008752200087D
:1038B000B121000800000000000000009121000874
:1038C00000000000000000000000000000000000F8
:1038D000852100088521000885210008A121000814
:1038E000620000005A0000005A0000006000000062
:1038F000620000005A0000005C0000005E00000052
:10390000620000005A0000005D0000005A00000044
:10391000620000005A0000005A0000005B00000036
:103920006200000059000000610000005E0000001D
:10393000620000005A000000590000005C00000016
:10394000620000005A0000005A00000062000000FF
:1039500062000000590000005A00000060000000F2
:1039600000127A00120100020000004083042B576D
:10397000000201020301000004030904E534000809
:10398000F1340008293500080135000845350008E4
:083990006D35000895350008B3
:04000005080035BDFD
:00000001FF
