:020000040800F2
:1000000000400020ED3C0008A1380008A33800089B
:1000100000000000000000000000000000000000E0
:10002000000000000000000000000000A5380008EB
:100030000000000000000000A7380008A9380008F0
:100040003D3D0008000000003D3D00083D3D00082A
:100050003D3D00083D3D00083D3D00083D3D000898
:10006000000000003D3D00083D3D00083D3D00080A
:100070003D3D00083D3D00083D3D000800000000FA
:100080003D3D00083D3D00083D3D00083D3D000868
:100090003D3D00083D3D00083D3D00083D3D000858
:1000A0003D3D00083D3D00083D3D00083D3D000848
:1000B0003D3D00083D3D000800000000B13800084B
:1000C00010B5064C2378002B07D1054B002B02D02E
:1000D000044800E000BF0123237010BD6801002028
:1000E00000000000983D0008044B10B5002B03D021
:1000F0000349044800E000BF10BDC04600000000F6
:100100006C010020983D0008002243088B4274D304
:1001100003098B425FD3030A8B4244D3030B8B4208
:1001200028D3030C8B420DD3FF22090212BA030C11
:100130008B4202D31212090265D0030B8B4219D3F2
:1001400000E0090AC30B8B4201D3CB03C01A524112
:10015000830B8B4201D38B03C01A5241430B8B425A
:1001600001D34B03C01A5241030B8B4201D30B0343
:10017000C01A5241C30A8B4201D3CB02C01A52416A
:10018000830A8B4201D38B02C01A5241430A8B422D
:1001900001D34B02C01A5241030A8B4201D30B0216
:1001A000C01A5241CDD2C3098B4201D3CB01C01A30
:1001B000524183098B4201D38B01C01A524143093A
:1001C0008B4201D34B01C01A524103098B4201D328
:1001D0000B01C01A5241C3088B4201D3CB00C01A95
:1001E000524183088B4201D38B00C01A524143080D
:1001F0008B4201D34B00C01A5241411A00D2014632
:10020000524110467047FFE701B5002000F006F8A4
:1002100002BDC0460029F7D076E770477047C04658
:1002200010B5040001F05EFEFA218900FFF76CFFB3
:1002300000F072F8012000222100404200F032F864
:10024000002010BD10B5064A136810210B4313603F
:100250000020FFF7E5FF03F0A1FA002010BDC04623
:1002600000200240024A1368013313607047C04601
:100270009C010020014B18687047C0469C0100207B
:1002800030B583B00190FFF7F5FF0500019C631CBA
:1002900000D00134FFF7EEFF401BA042FAD303B0B9
:1002A00030BD000070B5002811DB8408134DC03448
:1002B000A400625903231840C000FC331E0086408E
:1002C000B24389010B4083401343635170BDC0B2F8
:1002D0000F220240083A920806329200084BD318C7
:1002E0005D6803242040C000FF2214008440A54321
:1002F00089010A4082402A435A60E7E700E100E0B2
:1003000000ED00E01F2318401E3B8340014A1360AC
:100310007047C04600E100E001380A4B98420FD810
:10032000094A50600948036A1B021B0AC0210906DA
:100330000B43036200239360073313600020704770
:100340000120FCE7FFFFFF0010E000E000ED00E00F
:10035000F0B5C64600B582B0002338E0032600E0C1
:100360000026AE4035003D430234A400554EA55151
:10037000554C25684246D4432E0026404A68D20395
:1003800002D5424615432E004F4D2E606D682E005B
:1003900026404A68920302D5424615432E004A4D34
:1003A0006E60AD682E0026404A68D20202D54246F1
:1003B00015432E00444DAE60ED682C404A68920211
:1003C00002D542462A4314003F4AD46001330A68EA
:1003D0001400DC4071D001259D402A409046F5D0A4
:1003E0004C68022C01D0122C0ED1DC080834A40079
:1003F000275807261E40B6000F22B24097430A69CD
:10040000B24016003E43265002685F0003242600D7
:10041000BE40F643324094464A681440BC406246AF
:10042000144304604C68621E012A03D9112C01D0C8
:10043000122C10D184683440A446CC68BC4062467B
:10044000144384604468AC434A681209012515408E
:100450009D4025434560C46826408C68BC403443B9
:10046000C4604A68D200B1D5184DAE690124264354
:10047000AE61AD692C400194019C9C08A51CAD00A7
:10048000104EAF5903251D40AD000F26AE40B743B7
:100490009026F605B04200D162E70D4EB04208D07A
:1004A0000C4EB04207D00C4EB04200D156E70526A4
:1004B00057E7012655E7022653E702B004BC9046F1
:1004C000F0BDC046000001400004014000100240A1
:1004D0000004004800080048000C004803690B4273
:1004E00001D1002070470120FCE7002A01D1816280
:1004F00070478161FCE7000010B5041E59D041230C
:10050000C35C002B43D041232422E25422681368A9
:1005100001218B4313602268274B61680B401361F4
:100520002268936825490B409360E368012B34D01F
:10053000226884231B02A1680B439360E368022BAB
:1005400032D0226851681E4B0B4353602268D36837
:100550001A490B40D360236962691343A2691202EE
:1005600021681343CB602268E369216A0B4313605F
:100570002268136801210B43136000236364412246
:100580001F31A15423630132A354002010BD403316
:100590000022C25403F01AF9B5E7226880231B0237
:1005A000A1680B439360C9E72368802212015A6057
:1005B000C7E70120EAE7C046FFFFFFF0FF7FFFFF2C
:1005C00000800002F0B54123C35C202B20D12033F2
:1005D000C35C012B1ED04024012202554125242357
:1005E00043550668336893433360066833680A4F9F
:1005F0003B403360066833681943316001680B681B
:1006000013430B602023435500230355002000E0D3
:100610000220F0BD0220FCE7FFEFFFFFF0B5412311
:10062000C35C202B1ED12033C35C012B1CD0402483
:10063000012202554125242343550668336893431C
:10064000336006683368094F3B4009021943316043
:1006500001680B6813430B602023435500230355A7
:10066000002000E00220F0BD0220FCE7FFF0FFFFC9
:1006700070B5041E58D0EA23FF33C35C002B05D0AD
:10068000EA23FF330322E254002218E0E933FF3368
:100690000022C25403F062F9F2E7D100891A8B00FC
:1006A000E318190029310120087001390A70180077
:1006B0002B300021017059639963D963013260685E
:1006C0009042EAD8002214E0D100891A8B00E31886
:1006D0001D000A35FF3500212970013D2A700335C0
:1006E000297009352960043529601D33FF331960ED
:1006F00001329042E8D8402301222168CA520022E8
:100700002168CA524421206842520C31206842526A
:10071000064A2168CA5200221C3BE2540122EA2305
:10072000FF33E254002070BD0120FCE700BFFFFF53
:10073000016858228B5A034803439BB28B52002016
:100740007047C0460080FFFFF4235B00C35C012BB1
:1007500013D0F4235B000122C25400290AD19D3B2F
:10076000FF3B7F320168CA52F4235B000022C2546F
:10077000002070472423C154F6E70220F9E7000067
:10078000F0B54DB2002D65DB7F240C40E600361B32
:10079000B4000934FF3404197F2631402170ED0F75
:1007A0006570E260E370F4235B00C35C012B00D151
:1007B00075E1F4235B000122C254E378012B00D1E0
:1007C00074E0002B4ED0022B59D0032B61D022783D
:1007D000930001688C4663441988B24D29400A434E
:1007E000B1490A431A80A37A002B00D0B5E06378A0
:1007F000002B00D167E0A28805685023EB5A2178CE
:10080000C9005B185B198021C9008C466344012133
:100810008A431A8023789B000268944663441A88AE
:10082000510604D59F490A40A0490A431A802278FC
:10083000920003689C46624413889D490B40202126
:100840004B4099490B431380F4235B000022C254B0
:100850000020F0BD7F240C40E600361BB400283495
:10086000041999E723789B000268944663441A8828
:1008700090491140802292000A431A80A7E723780A
:100880009B000268944663441A888A490A401A8089
:100890009DE723789B000268944663441A88854943
:1008A0001140C022D2000A431A8090E723789B00AF
:1008B0000268944663441A887E4911408022D2001F
:1008C0000A431A8083E7A28805685026AB5B21782B
:1008D000C9005B185B1978498C46634401218A433F
:1008E0001A8001688B5B2278D2009B185B18734AD0
:1008F00094466344E1683E2926D94A0992B2C90662
:1009000001D1013A92B2920292B26D490A431A8021
:1009100023789B000268944663441A88510404D5E6
:1009200060490A4067490A431A8023789B0002689D
:10093000944663441988644A1140C0229201514090
:10094000594A0A431A807FE74A0892B2C90701D57B
:10095000013292B292021A80DAE723789B00026891
:10096000944663441A8859491140594A0A431A80E7
:10097000E28805685027EB5B2178C9005B185B199A
:100980008021C9008C4663440126B2431A80228923
:100990000568EB5B2178C9005B185B1946498C46FA
:1009A0006344B2431A806378002B3DD123789B00C7
:1009B0000268944663441A88510404D539490A40B0
:1009C00040490A431A8023789B0002689446634496
:1009D0001A88510604D533490A4034490A431A801B
:1009E00023789B000268944663441A882D4911407D
:1009F0002E4A0A431A802178890003689C46614484
:100A00000B88314A1A40C0239B015340264A1343A6
:100A10000B8023789B0001688C4663441988244C22
:100A200021400A431A800FE723789B00026894460E
:100A300063441A88510404D51A490A4021490A43DB
:100A40001A8023789B000268944663441A885106F2
:100A500004D514490A4015490A431A8023789B009B
:100A60000268944663441A880E491140154A0A43A5
:100A70001A802178890003689C4661440B880C4ADF
:100A80001340094A13430B8023789B0001688C466E
:100A9000634419880C4C21400A431A80D4E6022092
:100AA000D7E6C0460F0F00008080FFFFC080FFFF29
:100AB000BF8FFFFF8F89FFFF0404000006040000C2
:100AC0000080FFFF80C0FFFF8FBFFFFF0F0E000001
:100AD0008081FFFF10B54AB2002A3ADB7F230B402A
:100AE000DC00E41AA3000933FF33C3187F2421403C
:100AF0001970D20F5A70F4225200825C012A00D180
:100B0000C1E0F4225200012181549A7A002A41D195
:100B10005A78002A25D01A78920001688C466244DF
:100B200011884C0604D5594C2140594C2143118061
:100B30001B789B000268944663441A88554911400B
:100B4000554A0A431A80F4235B000022C254002055
:100B500010BD7F230B40DC00E41AA3002833C31828
:100B6000C4E71A78920001688C46624411884C04EC
:100B700004D5464C2140494C214311801B789B00F1
:100B80000268944663441A8845491140424A0A4320
:100B90001A80D8E75A78002A3AD11A789200016868
:100BA0008C46624411884C0404D5384C21403B4C9F
:100BB000214311801A78920001688C4662441188A2
:100BC0004C0604D5314C2140314C214311801A7818
:100BD000920001688C46624411882C4C0C402C49D0
:100BE000214311801C78A400026894466444228842
:100BF0002B490A4028490A4322801B789B0002683F
:100C0000944663441A88234C2240114319809AE782
:100C10001A78920001688C46624411884C0404D50D
:100C20001A4C21401D4C214311801A789200016812
:100C30008C46624411884C0604D5144C2140144C57
:100C4000214311801A78920001688C466244118811
:100C50000E4C0C401149214311801C78A4000268FD
:100C60009446644422880B490A400B490A43228077
:100C70001B789B000268944663441A88084C224003
:100C8000114319805FE7022062E7C0460F0F0000A2
:100C9000C080FFFFBF8FFFFF8080FFFF80C0FFFF8E
:100CA0008FBFFFFF70B57F242140CD006D1AAC00CF
:100CB000041925001935FF352A6022001D32FF3244
:100CC0001360083500222A60173D2A70220009327D
:100CD000FF3211701534FF342268934240D9CD00A1
:100CE0006D1AAC0004191D34FF349B1A2360CC002C
:100CF000641AA3001C00C3181333FF331B78002BA6
:100D000041D105685033EB5A04190934FF34247873
:100D1000E4001B195B195E4CA44663443E2A29D9A2
:100D20005409A4B2D20601D1013CA4B2A402A4B2D7
:100D3000584A14431C800368CA00511A8A0080185C
:100D40000930FF30027892009B181988524A1140EE
:100D5000C02292015140514A0A431A80002070BDBE
:100D6000CC00641AA20082181D32FF3200241460E5
:100D70001A00BCE75408A4B2D20701D50134A4B2CA
:100D8000A4021C80D7E7CC00641AA3001C00C3187F
:100D90000A33FF331B78002B23D105685033EB5AFD
:100DA00004190934FF342478E4001B195B193C4C06
:100DB000A44663443E2A0BD95409A4B2D50601D1F6
:100DC000013CA4B2A402A4B2324D2C431C800AE020
:100DD0005408A4B2D50701D50134A4B2A4021C80E2
:100DE00001E0012B24D0CC00641AA3001C00C3181E
:100DF0000A33FF331B78002B35D105685033EB5A8B
:100E000004190934FF342478E4001B195B19204CC1
:100E1000A44663443E2A1DD95409A4B2D20601D186
:100E2000013CA4B2A402A4B21A4A14431C8082E773
:100E300005684F33EB5ACE00761AB4000419093412
:100E4000FF342478E4001B195B19154CA446634455
:100E50001A80C8E75408A4B2D20701D50134A4B25D
:100E6000A4021C8067E7012B00D064E705684F33BC
:100E7000EB5ACE00761AB40004190934FF342478F2
:100E8000E4001B195B19024CA44663441A8052E724
:100E9000060400000080FFFF8FBFFFFF8080FFFF80
:100EA0000204000010B5F4235B00C35C012B4DD09D
:100EB000F4235B000122C2544CB2002C20DBCA0098
:100EC000521A93000933FF33C31801229A707E32FD
:100ED00011401970E40F5C7000291AD18900036871
:100EE0009C4661440A881A4B1A401A4B5A401A4BC6
:100EF00013430B80F4235B000022C254002010BD7A
:100F00006A3BFF3B0B40DA00D21A93002833C31828
:100F1000DBE7002C0CD0890003689C4661440B88F9
:100F20000E4A1340102253400B4A13430B80E1E753
:100F3000890003689C4661440A88094B1A40802353
:100F40005B015A40044B13430B80D3E70220D6E7E2
:100F5000BFBFFFFF101000008080FFFFBF8FFFFFAB
:100F60008FBFFFFF10B54AB2002A38DBCC00641AED
:100F7000A3000933FF33C31800249C707F34214041
:100F80001970D20F5A70F4225200825C012A4AD0A2
:100F9000F4225200012181545A78002A27D01A786D
:100FA000920001688C46624411884C0604D51F4C9F
:100FB00021401F4C214311801A78920003689C46FF
:100FC000624413881B490B4030214B401A490B43A4
:100FD0001380F4235B000022C254002010BD7F2345
:100FE0000B40DC00E41AA3002833C318C4E71A78C6
:100FF000920001688C46624411884C0404D50B4C65
:1010000021400E4C214311801B789B0002689446BE
:10101000634419880A4A1140C02292015140064A8D
:101020000A431A80D5E70220D8E7C0460F0F000018
:10103000C080FFFFBF8FFFFF8080FFFF80C0FFFFEA
:101040008FBFFFFF10B501335B0812188020C0006E
:101050008446624407E008784C78240204431480F4
:101060000231013B0232002BF5D110BDF8B505006D
:101070007F240C40E000001B810069188A63CB6369
:1010800000220A640A00293201201070013A14700B
:101090004F6BBB4233D9DB1BCB63E200121B9300C7
:1010A0001A00EB1832331B78002B30D02868E2008E
:1010B000121B9300EB1828331B789A00825A5206B1
:1010C00074D5E600361BB200AA1829321278002A1D
:1010D0003BD15032825ADB00D3181818614B9C4622
:1010E00060443E2F28D97B099BB2FA0601D1013B0F
:1010F0009BB29B029BB25C4A1343038027E0E10052
:10110000091B8A00AA180021D1631F00C5E7BFB2DE
:10111000AE18B28D3B00B16B2868FFF793FF2A68C9
:101120005023D35A28363178C9005B189B184F4A90
:10113000944663441F8082E07B089BB2FA0701D586
:1011400001339BB29B02038001E0012A24D0E2001C
:10115000121B9300EB181A8EBBB2E100091B8E0024
:10116000AE19B16B2868FFF76DFF29363378002B75
:1011700055D0012B63D1E200121B9300EB182833EA
:101180001B789B002A68944663441A8838491140AA
:10119000384A0A431A8052E04F32825ADB00D31891
:1011A0001818304B9C4660440780D0E7E600361B99
:1011B000B200AA1829321278002A1ED15032825A5F
:1011C000DB00D3181818294B9C4660443E2F0BD9DE
:1011D0007B099BB2FA0601D1013B9BB29B029BB2F9
:1011E000214A134303800AE07B089BB2FA0701D52A
:1011F00001339BB29B02038001E0012A05D0E2008B
:10120000121B9300EB18DA8DA6E74F32825ADB00EF
:10121000D3181818154B9C4660440780EFE7E2008E
:10122000121B9300EB1828331B789B002A68944606
:1012300063441A880E4911400F4A0A431A802A68EB
:10124000E1000C1BA300ED1828352B789B00D21869
:1012500013880A490B4030214B4009490B43138046
:101260000020F8BD060400000080FFFF020400001B
:101270000F0F000080C0FFFFC080FFFFBF8FFFFF88
:101280008080FFFF30B55D0812188020C0008446C2
:10129000624406E014880C70240A4C70013D02324E
:1012A0000231002DF6D1DB0701D513880B7030BD5C
:1012B000F0B583B0050001AB00221A8028684423F2
:1012C000C35A9BB26A46D3801BB2002B00DB39E2C3
:1012D0006B46DC880F231C4000D0B5E06B4606331C
:1012E0001B88DB064BD5028801AB1A801B881B05C7
:1012F00075D401AB1B881BB2002BDFDA0388CA4A06
:101300001340038028685023C35A84225200AA5CE9
:10131000D2009B181B18C54A944663441B889B0542
:101320009B0D2A000932FF329361002B00D077E039
:101330000021280002F03CFB2B6850229A5A9A1890
:10134000BA4B9C4662442B000933FF33D9683E29CF
:1013500071D94B099BB2C90601D1013B9BB29B02DB
:101360009BB2B3490B43138029680A88B14B1A40DA
:10137000C0239B015A40B04B13430B809EE7038868
:10138000AE4A1340038029685023CB5A2822AA5C16
:10139000D2009B185B18AA4A944663441B889B059D
:1013A0009B0D2B64AA6B94466344AB630021280019
:1013B00002F00DFB2423EB5C002B00D17EE7EB6BEE
:1013C000002B00D07AE72422AB5C802149420B43FA
:1013D000DBB2CC31286843520023AB546EE7502374
:1013E000C35A84225200AA5CD2009B181B188F4A51
:1013F000944663441B889B059B0D2A000932FF32EB
:1014000093612900ED31FF319288FFF73BFF2A6895
:10141000138885490B401380280002F0BFFA4DE77E
:10142000140092882169FFF72DFF2369A269944671
:10143000634423617CE74B089BB2C90701D50133A4
:101440009BB29B0213808FE7A700C019028801ABF3
:101450001A801B881BB2002B31DB01AB1B881B06DB
:1014600000D42BE72B689C4667443B88734A1340A3
:101470003B80E200121B93001A00EB1832331B78FA
:10148000002B00D0E2E028685033C35AAA1811009C
:1014900028310978C9005B181B1869498C466344D8
:1014A0001B889B059B0D136400D1FDE0E200121B1D
:1014B000910069188A8D896BFFF7C4FDF4E05A4BDF
:1014C0001A400280E200121B93001A00EB1813333B
:1014D000FF331B78002B1DD128685033C35A1100ED
:1014E000AA180932FF321278D2009B181B184F4AF3
:1014F000944663441E88B605B60D34D06B181A00A6
:101500000D32FF3212881933FF3319683300FFF7A9
:10151000B9FE28E02868E200121B9300EB1809339B
:10152000FF331B789A00825A520456D55022825AB1
:10153000DB00D3181B18424A944663441E88B60544
:10154000B60D3BD1E200121B9300EB180933FF33B9
:101550001B789B002A68944663441A8839491140D5
:10156000394A0A431A803100E200121B9300EB183B
:1015700018002130FF300268921902601A001932F7
:10158000FF3210688446664416601D33FF331B68C3
:10159000002B08D0E200121B900028181530FF30F5
:1015A0000268914234D2E200121B9300EB18093317
:1015B000FF331978280002F0FBF94EE7E200121B16
:1015C0009300EB181A000F32FF3212881933FF33E1
:1015D00019683300FFF756FEB4E75022825ADB0049
:1015E000D3181B18114A944663441E88B605B60DDD
:1015F000A8D0E200121B9300EB181A001132FF3240
:1016000012881933FF3319683300FFF73BFE99E75F
:10161000E100091B8A00AA180932FF321178320052
:101620002800FFF73FFB18E78F0F000006040000BB
:101630000080FFFF8FBFFFFF8080FFFF0F8FFFFF46
:10164000020400000F0F0000C080FFFF2868E200C6
:10165000121B9300EB1828331B789A00825A52060B
:101660004DD55022825ADB00D3181B18374A9446B6
:1016700063441B889B059B0DE100091B8A00110038
:10168000AA181364002B34D1E200121B9300EB184C
:1016900028331B789B002A68944663441A882C4997
:1016A00011402C4A0A431A8028685023C25AE1008C
:1016B000091B8B00EB18190028310978C900521852
:1016C000121822498C46624412889205920D1A64BF
:1016D000996B8C4662449A63DB6B002B28D1E30044
:1016E0001C1BA300EB1828331978280002F06FF9AF
:1016F000E4E56918CA8D896BFFF7A4FCC4E75022A2
:10170000825ADB00D3181B18134A944663441B8883
:101710009B059B0DE100091B8A001100AA181364A8
:10172000002BB1D069180A8E896BFFF78BFCABE7F1
:10173000E1000C1BA1006918283109782800FFF787
:1017400095FCBBE5002003B0F0BDC04602040000DC
:101750000F0F000080C0FFFF0604000070B50400FA
:1017600044230268D35A1BB2002B46DB2368442271
:101770009A5A520544D4236844229A5A520404D5F2
:1017800044215A5A344802405A52236844229A5AF1
:10179000920404D544215A5A304802405A522368D0
:1017A00044229A5AD20438D4236844229A5A120501
:1017B00013D54422995A2A4801409952206840235F
:1017C000C15A08252943C1522068C15A042529431A
:1017D000C15223689B5ADB0431D5236844229A5AAC
:1017E000920530D4236844229A5AD20504D5442164
:1017F0005A5A1C4802405A5270BDFFF759FDB5E7CE
:1018000044215A5A184802405A52200002F0F3F874
:1018100000212000FEF798FFADE74022995A0420EE
:1018200081439952114B21688B52200002F002F93A
:10183000216844228B5A0E4803408B52B4E72000A3
:1018400002F0E6F8C9E744215A5A0A4802405A52BF
:10185000200002F0C9F8C5E7FFBFFFFFFFDFFFFF71
:10186000FFF7FFFFFFFEFFFFFFFBFFFF00BDFFFFD6
:10187000FFEFFFFFFFFDFFFF10B50C060FD57F2424
:101880002140CC00611A8C0028340019002A0DD0A8
:1018900001228272C3801B0C0381002010BDCC008A
:1018A000611A8C000934FF340019EFE782728380DB
:1018B000F3E7000070B582B004000368DB072BD5A6
:1018C000B34B5A680C231340042B1DD0B04B5A68FD
:1018D0000C231340082B0ED06368012B41D0002B42
:1018E00056D1AB4B1A68AB490A401A601A68AA492C
:1018F0000A401A603BE0A64B5B68C02252021340CC
:10190000802252029342E7D1A14B1B689B0303D56F
:101910006368002B00D1F1E123689B0778D59C4BCD
:101920005B680C221A4262D0994B5A680C23134010
:10193000082B53D0E368002B00D18BE0944A136846
:1019400001210B431360FEF795FC0500904B1B68CB
:101950009B0776D4FEF78EFC401B0228F6D90320A5
:10196000CFE18B4A116880235B020B4313606368ED
:10197000002B25D0FEF77EFC0500854B1B689B03E2
:10198000CAD4FEF777FC401B6428F6D90320B8E1DF
:10199000052B09D07E4B1A687E490A401A601A68E6
:1019A0007D490A401A60E2E7794B19688022D20229
:1019B0000A431A601968802252020A431A60D6E765
:1019C000FEF758FC0500724B1B689B03A4D5FEF77D
:1019D00051FC401B6428F6D9032092E16C4B5B68F4
:1019E000C02252021340802212029342A2D1684BBD
:1019F0001B689B0704D5E368012B01D0012080E11F
:101A000063490B68F82293432269D20013430B60A9
:101A100023681B0744D5E369002B2ED05C4A536A28
:101A200001210B435362FEF725FC0500584B5B6A0E
:101A30009B0735D4FEF71EFC401B0228F6D9032075
:101A40005FE153490B68F82293432269D2001343A4
:101A50000B60DDE74E4A136801218B431360FEF7EC
:101A600009FC05004A4B1B689B07D1D5FEF702FC19
:101A7000401B0228F6D9032043E1454A536A01215D
:101A80008B435362FEF7F6FB0500414B5B6A9B07F5
:101A900006D5FEF7EFFB401B0228F6D9032030E104
:101AA00023685B0700D47FE0394BDB69DB001DD482
:101AB000374AD169802040050143D161D369034091
:101AC0000193019B0125354B1B68DB0510D5A368ED
:101AD000012B21D0002B36D12D4B1A6A01218A43CC
:101AE0001A621A6A03318A431A621AE00025EAE789
:101AF0002A4A116880235B000B431360FEF7BAFB90
:101B00000600264B1B68DB05E1D4FEF7B3FB801B08
:101B10006428F6D90320F4E01D4A136A01210B431F
:101B20001362A368002B24D0FEF7A4FB0600184B19
:101B30001B6A9B0736D4FEF79DFB801B184B98420F
:101B4000F5D90320DDE0052B09D0114B1A6A0121DC
:101B50008A431A621A6A03318A431A62E1E70C4B1C
:101B60001A6A04210A431A621A6A03390A431A627A
:101B7000D7E7FEF77FFB0600054B1B6A9B0711D5D5
:101B8000FEF778FB801B064B9842F5D90320B8E09E
:101B900000100240FFFFFEFFFFFFFBFF0070004050
:101BA00088130000012D33D02368DB0610D563694C
:101BB000012B33D0053351D1544A536B04218B434D
:101BC0005363536BF4318B43A169C9000B435363D7
:101BD000236A002B00D193E04C4A51680C220A4042
:101BE000082A00D18FE0022B4FD0484A1368484999
:101BF0000B401360FEF73EFB0400444B1B689B0147
:101C00007AD5FEF737FB001B0228F6D9032078E0CF
:101C10003E4AD3693F490B40D361C5E73B4B5A6B02
:101C200004210A435A635A6B03390A435A63FEF785
:101C300021FB0500354B5B6B9B0706D4FEF71AFBB7
:101C4000401B0228F6D903205BE030494B6BF82299
:101C50009343A269D20013434B63B9E72B4B5A6BF2
:101C600004210A435A635A6B03398A435A63FEF7C5
:101C700001FB0500254B5B6B9B07A9D5FEF7FAFA24
:101C8000401B0228F6D903203BE0204A1368204974
:101C90000B401360FEF7EEFA05001C4B1B689B011E
:101CA00006D5FEF7E7FA401B0228F6D9032028E004
:101CB000164BDA6A0F218A43E16A0A43DA625A68EC
:101CC00015490A40A16A606A01430A435A601968CB
:101CD000802252040A431A60FEF7CCFA04000B4B30
:101CE0001B689B0106D4FEF7C5FA001B0228F6D933
:101CF000032006E0002004E0002002E0012000E0D4
:101D0000002002B070BD0120FBE7C0460010024079
:101D1000FFFFFFFEFFFFFFEFFF7FC2FF30B589B07F
:101D200004AA184B180032C832C2110002680A60B7
:101D30006A46103313CB13C21B681360124B5B68E7
:101D40000C221A40082A1BD1990C0732114004A812
:101D5000445C0D49C96A0A406946895CC022520246
:101D6000134080225202934205D00848FEF7CCF976
:101D7000604309B030BD0548FEF7C6F96043F8E797
:101D80000248F6E7B03D00080010024000127A0059
:101D900070B505000C004D4B1A68012313408B42AF
:101DA0000BD24A490B680122934323430B600B6813
:101DB0001A40A24201D0012070BD2B689B0706D5B6
:101DC000434A5368F0218B43A9680B4353602B6847
:101DD000DB074BD56B68012B20D0022B24D03C4A6B
:101DE000126892076FD53A494A6803208243134329
:101DF0004B60FEF73FFA06006B68012B1AD0022BEE
:101E000026D0334B5B680C221A422FD0FEF732FAF1
:101E1000801B304B9842F4D90320CDE72C4A12683E
:101E20009203E0D40120C7E7294A12689201DAD46C
:101E30000120C1E7264B5A680C231340042B15D010
:101E4000FEF718FA801B234B9842F3D90320B3E71F
:101E50001F4B5A680C231340082B07D0FEF70AFAD1
:101E6000801B1C4B9842F3D90320A5E7174B1A6837
:101E700001231340A3420BD914490B680122934359
:101E800023430B600B681A40A24201D0012093E764
:101E90002B685B0706D50E4A53680F490B40E9686B
:101EA0000B435360FFF73AFF094B5A6812090F239F
:101EB00013400A4AD35CD840094B18600020FEF753
:101EC000AFF9002078E7012076E7C0460020024005
:101ED0000010024088130000FFF8FFFF503E00088A
:101EE00030010020014B18687047C04630010020C7
:101EF00010B5FFF7F7FF044B5A68120A0723134087
:101F0000024AD35CD84010BD00100240603E000879
:101F100070B582B004000368DB0335D5414BDB6943
:101F2000DB0052D43F4AD169802040050143D16192
:101F3000D36903400193019B01253B4B1B68DB05E3
:101F400045D5384B1B6AC0229200134013D06168FC
:101F50000A409A420FD0334B186A344A02401E6A34
:101F60008021490231431962196A314E31401962A8
:101F70001A62C3073FD42B4A136A2C490B4061688D
:101F80000B431362012D45D02368DB0706D5254A94
:101F9000136B03218B43A1680B43136323689B06D8
:101FA00006D5204A136B10218B43E1680B43136362
:101FB00023689B0333D51B4A136B80218B43216914
:101FC0000B431363002002B070BD0025B5E7164A2D
:101FD000116880235B000B431360FEF74BF906008A
:101FE000114B1B68DB05ACD4FEF744F9801B642859
:101FF000F6D90320E7E7FEF73DF90600094B1B6A17
:102000009B07B8D4FEF736F9801B0A4B9842F5D9E6
:102010000320D8E7D36908490B40D361B4E7002017
:10202000D1E7C0460010024000700040FFFCFFFFF7
:10203000FFFFFEFF88130000FFFFFFEF0023436454
:10204000412201218154013A83540020704700004D
:1020500010B5040083680269134342691343802268
:1020600012021A4301680B683548034013430B60A2
:10207000A369E2691343802212011A43236AE168CB
:102080000B431A4321684B682E48034013434B60AF
:1020900023682D4A93420BD02C4A934237D02C4AC6
:1020A000934234D02B4A934231D00023012039E0AF
:1020B000294B1A6B03231340012B10D0002B26D081
:1020C000022B18D0032B37D163685808234B9C464A
:1020D00060446168FEF718F883B2002022E0FFF741
:1020E0001DFE400063685B08C0186168FEF70CF8CD
:1020F00083B2002016E06368580880235B029C4688
:1021000060446168FEF700F883B200200AE0FFF740
:10211000EFFE400063685B08C0186168FDF7F4FFDC
:1021200083B200200F22190091435B10083A13403C
:102130000B432268D36010BD00230120F2E7C046A4
:10214000F369FFEFFFC0FFFF00380140004400408B
:1021500000480040004C0040001002400024F40001
:1021600010B5041E24D04123C35C002B1AD0412398
:102170000222E2542268136801218B43136020007D
:10218000FFF766FF01280CD02268936808218B4373
:1021900093602268136807390B4313602000FFF730
:1021A0004DFF10BD40330022C25401F045FBDEE775
:1021B0000120F6E72223038000487047000000203A
:1021C00086239B00C35800221A730020704700002A
:1021D0000A230380014824307047C04600000020D5
:1021E00010B586239B00C4580A78B93BFF3B1340C7
:1021F00024D0202B53D14B78032B10D007D90A2B96
:1022000013D00B2B16D18B782360002048E0022BD3
:1022100010D1211D012200F09CFC002040E0012291
:10222000210000F096FC00203AE04B881B0A636016
:10223000002035E000F000FA022031E04B780A2B54
:1022400022D00B2B27D0062B01D0002028E04B8872
:102250001B0A222B07D0212B0DD00021002200F0D9
:1022600078FC00201CE0CB881A1CBB2B00D9BB22B9
:1022700092B20C49F3E7CB881A1C092B00D909222A
:1022800092B209493031EAE721000831012200F019
:1022900060FC002004E08B78A360002000E00020B8
:1022A00010BDC0463C0000200000002010B5040016
:1022B000812101F02EFC86239B00E058002805D0E8
:1022C00001F0A6FC86239B000022E250002010BDF6
:1022D00010B5040008230322812101F007FC10201F
:1022E00001F092FC86239B00E050002803D00023DD
:1022F0000373002010BD0120FCE770B58624A40004
:1023000005591C3C045D032C01D0002070BD2B7BC3
:10231000002BFAD101332B7313000A00812101F045
:1023200052FCF2E710B5002816D085239B00C35855
:10233000002B03D085239B000024C450002902D029
:1023400084239B00C150FE235B000121C154027015
:1023500001F086FB002010BD0220FCE7002904D01C
:1023600085239B00C150002070470220FCE710B578
:1023700001F0ACFB002010BD10B585239B00C358B5
:10238000002B07D01B689847002801D1002010BD02
:102390000220FCE70220FAE710B585239B00C35812
:1023A0005B689847002010BD70B5040082239B0035
:1023B000C518280000F02CF9FA235B000122E25036
:1023C000124BE25A163BE2501033E15CEA3BFF3B12
:1023D0000B40012B0FD0002B07D0022B10D07F23F6
:1023E0009943200001F0A5FB03E02900200000F044
:1023F000B3FA002070BD2900200000F0D1FAF8E700
:102400002900200000F0EBFAF3E7C0460E020000BE
:1024100010B504001300002929D1FA225200825875
:10242000032A01D0002010BD421DFF329168D268FE
:1024300091420FD885239B00C3581B69002B05D000
:10244000FE225200825C032A00D19847200000F04F
:102450009EFBE7E7891A0530FF3081608A4200D988
:102460000A0092B21900200000F089FBDAE7852308
:102470009B00C3589B69002BD4D0FE225200825C83
:10248000032ACFD19847CDE770B504001300002987
:102490004ED1FA2252008258022A06D080239B0095
:1024A000E35C012B3FD0002070BDC269056AAA42DF
:1024B0001ED8866929003000FDF7ACFE002906D140
:1024C000B54204D8FC235B00E3589E421DD385230C
:1024D0009B00E358DB68002B06D0FE225200A25C72
:1024E000032A01D120009847200000F05CFBD5E7CB
:1024F000521BC26192B2190000F039FB0023002286
:102500000021200001F06FFBC8E70022200000F04E
:102510002EFBFC235B000022E25000230021200060
:1025200001F061FBBAE780239B000022E254BAE786
:1025300085239B00C3585B69002BB4D0FE22520058
:10254000825C032AAFD19847ADE770B50400402301
:102550000022002101F0CAFA402588235B00E550E3
:10256000D03B00228021200001F0C0FA2562FE232A
:102570005B000122E2541C33E358002B06D0852374
:102580009B00E3585B68217920009847002070BDCC
:10259000017400207047FE235B00C15CFE22FF3205
:1025A0008154FA3AFF3AC25400207047FE23FF33A9
:1025B000C25C013BC2540020704710B5FE235B0093
:1025C000C35C032B01D0002010BD85239B00C358A2
:1025D000DB69002BF7D09847F5E70300002002E005
:1025E0000130C0B201331A78002AF9D1704710B512
:1025F00004004B88012B0AD181239B000122C25089
:102600001033C3589B689847200000F0C0FA10BDF3
:102610000B7803704B7843708B78CA7812029B1842
:1026200043800B794A7912029B1883808B79CA798F
:1026300012029B18C380704710B50400802101F07E
:1026400078FA0021200001F074FA10BD30B583B093
:1026500004000D004A88130A072B00D98EE09B0066
:102660004F49CB589F4684239B00C3581B68007C6E
:102670006A46911D98476B4606331B88002B03D092
:10268000EA88002A00D07EE003B030BD037C002B36
:1026900009D185239B00C3589B6A6A46901D9847C1
:1026A00002234370E7E785239B00C358DB6A6A4631
:1026B000901D984702234370DDE7D2B2052A39D82E
:1026C0009200384B9B589F4684239B00C3585B68FD
:1026D000007C6A46911D9847CDE784239B00C35830
:1026E0009B68007C6A46911D9847C4E784239B0041
:1026F000C358DB68007C6A46911D9847BBE784237A
:102700009B00C3581B69007C6A46911D9847B2E73D
:1027100084239B00C3585B69007C6A46911D9847DF
:10272000A9E784239B00C3589B69007C6A46911DDE
:102730009847A0E72900FFF77FFFA5E7037C002B60
:1027400007D185239B00C3585B6B6A46901D984751
:1027500091E72900FFF770FF96E7037C002B09D172
:1027600085239B00C3581B6B6A46901D984707231F
:10277000437080E72900FFF75FFF85E7290020000D
:10278000FFF75AFF80E7191C934200D9111C8AB247
:102790006B46D9800100200000F0DBF974E7C046E9
:1027A000D03D0008F03D000870B504008B88002B78
:1027B00022D1CB88002B1FD18B787F251D40FE2393
:1027C0005B00C35C032B0FD0FF235B00C5542900C3
:1027D00001F0E9F9200000F0DAF9002D07D0FE231E
:1027E0005B000222E2540AE0FFF726FF07E0FE2327
:1027F0005B000122E25402E02000FFF71DFF70BDE4
:1028000070B504000D008978284B197001290AD889
:10281000FE235B00C35C022B09D0032B1ED02900D2
:10282000FFF70AFF02E02900FFF706FF70BD00294D
:1028300011D04160FE235B000322C254FFF79CFDD0
:10284000022803D0200000F0A2F9EFE729002000C1
:10285000FFF7F2FEEAE700F09AF9E7E7002911D066
:10286000436899421ED0D9B2FFF796FD0F4B1978F5
:1028700061602000FFF780FD02280ED0200000F0EC
:1028800086F9D3E7FE235B000222C2544160FFF7C2
:1028900083FD200000F07BF9C8E729002000FFF746
:1028A000CBFEC3E700F073F9C0E7C0468401002007
:1028B00010B5CB88012B09D1FE235B00C35C022B32
:1028C00007D0032B0DD0FFF7B7FE01E0FFF7B4FEF2
:1028D00010BD0023836001000831012200F039F9A6
:1028E000F6E7011D012200F034F9F1E710B5FE23EF
:1028F0005B00C35C023BDBB2012B0ED80123C3603B
:1029000081239B00C358002B01D00323C360010027
:102910000C31022200F01DF910BDFFF78DFEFBE720
:1029200010B50400FE235B00C35C023BDBB2012B4D
:102930000ED84B88012B0AD181239B000022C25064
:102940001033C3589B689847200000F020F910BD51
:10295000FFF772FEFBE7000010B54B78092B19D882
:102960009B000E4AD3589F46FFF770FE002010BD13
:10297000FFF71AFFFAE7FFF743FFF7E7FFF798FFC4
:10298000F4E7FFF7B3FFF1E7FFF731FEEEE7FFF7FC
:10299000C7FFEBE7FFF750FEE8E7C046083E000838
:1029A00070B504000D00FE235B00C35C032B13D144
:1029B0000B79012B0DD885239B00C3589B68984742
:1029C000EB88002B01D0002070BD200000F0DFF864
:1029D000F9E7FFF731FEF6E7FFF72EFEF3E770B5F4
:1029E00005000C008A88D1B2207860230340202B98
:1029F00008D1F533FF33EB589B6821002800984736
:102A0000002070BD6378012B2CD0002B52D0032BFB
:102A1000F6D1FA33FF33EB5C022B06D0032B0CD03C
:102A200021002800FFF708FEEAE70029E8D0802906
:102A3000E6D0280001F07DF8E2E76388002B06D19C
:102A4000002904D0802902D0280001F072F88523E3
:102A50009B00EB589B68210028009847280000F055
:102A600096F8CDE7FE235B00EB5C022B06D0032B30
:102A70000CD021002800FFF7DFFDC1E70029BFD0FF
:102A80008029BDD0280001F054F8B9E76388002BF5
:102A9000B6D14B0603D1280000F079F8B0E7280042
:102AA00001F057F885239B00EB589B682100280014
:102AB0009847F0E7FE235B00EB5C022B06D0032B6C
:102AC0000AD021002800FFF7B7FD99E74B0697D001
:102AD000280001F02EF893E7130612D47F240C404F
:102AE000103424012C190434280001F042F8002885
:102AF0000ED00123236002222100280000F029F8D3
:102B00007EE77F240C40013424012C190434EBE7C8
:102B100000232360EFE770B504000D0016000028C5
:102B200016D0FFF75AFD0130400080B23080287087
:102B300003236B70013B08E001345A1CD2B2E95404
:102B40000233DBB2AA180021117021780029F3D1D9
:102B500070BD10B51300FA22520002248450836124
:102B6000C3610A00002101F02EF8002010BD10B54D
:102B700013000A00002101F026F8002010BD10B556
:102B800013000A00002101F02EF8002010BD10B53E
:102B9000FA235B000422C25000230022002101F02E
:102BA00012F8002010BD10B5FA235B000522C250B8
:102BB00000230022002101F016F8002010BD10B5FE
:102BC0000300012001E0043301308842FBDB0020D8
:102BD00001E004330131914205DA1C68002CF8D180
:102BE000481E0821F5E710BDF0B58BB01422002176
:102BF00005A801F0C9F83C4B596980200003014346
:102C000059615A6902400192019A59698020C003B2
:102C1000014359615A6902400292029A596980201F
:102C20008002014359615A6902400392039A5A692A
:102C30008021C9020A435A615B690B400493049BDB
:102C4000E0242402002221002848FDF74EFC012246
:102C500003219020C005FDF748FC254D00222900E6
:102C60009020C005FDF741FCF32636020122310019
:102C70002048FDF73AFC05940127069700240794A5
:102C8000089405A91948FDF763FB032305930697EC
:102C9000013B0793089405A99020C005FDF758FB58
:102CA0003C2305930694079405A99020C005FDF7E1
:102CB0004FFB059506970794089405A99020C00539
:102CC000FDF746FBFF2305930694079705A90948DE
:102CD000FDF73EFB059606970794089405A905485D
:102CE000FDF736FB0BB0F0BD0010024000080048B5
:102CF000C08000000004004810B50948094B03607B
:102D000096231B02436000238360C36003610C228F
:102D100042618361C3610362FFF722FA10BDC046BE
:102D2000EC0100200038014010B50D4C0D4B236024
:102D30000D4B63600023A3600122E26023616361A5
:102D4000A361E36123622000FDF7D6FB0021200090
:102D5000FDF738FC00212000FDF760FC10BDC046E7
:102D6000A0010020005800405D3E302010B596B014
:102D7000282200210CA801F007F81022002106A843
:102D800001F002F81422002101A800F0FDFF012348
:102D90000A930B930224129480235B0213938023E3
:102DA0005B0314930AA8FEF785FD07230693079497
:102DB000002408940994012106A8FEF7E9FF054BB9
:102DC000019303948023059301A8FFF7A1F816B09F
:102DD00010BDC04601000200F0B5D6464F4680B592
:102DE000A3B01AA9DB480B00020013CA13C313CA0D
:102DF00013C303CA03C3FDF725FAFFF7B7FFFFF7B5
:102E0000F3FEFFF779FFFFF78FFF00F08DFD202223
:102E1000002112A800F0B8FF202200210AA800F02B
:102E2000B3FF08AC08220021200000F0ADFF012311
:102E300023709024E405002201212000FDF755FBBA
:102E4000002202212000FDF750FB00F072FC8A00F6
:102E50006B46D3580120434012A81350ED18135865
:102E60000AA812589B1A5A1E9341E41801310729E7
:102E7000EDDD2C4301D100F04DFC002423E0A30044
:102E80000AAA9B58002B25D1A3001AAA9E5808AD68
:102E9000082204212800FFF792FE2E541AE0013583
:102EA000072D0FDC08AB5A5DA3001AA95B589A42A4
:102EB000F5D108AB00225A5590200121C005FDF73D
:102EC00014FBECE70134072C10DCA30012AA9B587A
:102ED000012BD4D0A30012AA9B58002BF2D1A3003F
:102EE0000AAA9B58012BEDD10425D9E7179B012B8A
:102EF00030D0129B012B3AD0139B012B00D1AFE0B5
:102F0000149B012B00D129E1159B012B00D19FE1DE
:102F1000169B012B00D115E2179B012B00D18AE2F1
:102F2000189B012B00D101E3199B012B00D178E301
:102F300008AC082221008848FFF7DFF9012323703D
:102F400000236370A370E37023716371A371E37155
:102F50000023E9E308AB01221A705A7000229A702C
:102F60003E21D9701A715A719A71DA71C1E70A9BC0
:102F7000002BC1D108AC01262670042767700025FC
:102F8000A5706233E37025716571A571E571082242
:102F900021007148FFF7B1F90A20FDF771F9267099
:102FA0006770A570E570082221006B48FFF7A5F94E
:102FB0000A20FDF765F926706770A5705A239946B7
:102FC000E370082221006448FFF797F90A20FDF713
:102FD00057F926706770A570E570082221005E48D9
:102FE000FFF78BF90A20FDF74BF926706770A57083
:102FF0004B46E370082221005748FFF77EF90A206C
:10300000FDF73EF926706770A570E5700822210073
:103010005148FFF772F90A20FDF732F92670677000
:10302000A5706023E370082221004B48FFF765F983
:103030000A20FDF725F926706770A570E570082253
:1030400021004548FFF759F90A20FDF719F92670C4
:103050006570A570E57025716571A571E5714BE727
:103060000B9B002B00D04BE708AC012626700427F1
:1030700067700025A5706233E37025716571A571D5
:10308000E571082221003448FFF737F90A20FDF7DF
:10309000F7F826706770A570E570082221002E48A9
:1030A000FFF72BF90A20FDF7EBF826706770A57083
:1030B0005A23E370082221002748FFF71EF90A204F
:1030C000FDF7DEF826706770A570E5700822210014
:1030D0002148FFF712F90A20FDF7D2F82670677031
:1030E000A5705C23E370082221001B48FFF705F957
:1030F0000A20FDF7C5F826706770A570E5700822F4
:1031000021001548FFF7F9F80A20FDF7B9F82670F5
:103110006770A5705E23E370082221000E48FFF758
:10312000ECF80A20FDF7ACF826706770A570E57022
:10313000082221000848FFF7E0F80A20FDF7A0F870
:1031400026706570A570E57025716571A571E571D2
:10315000D6E6C046303E0008340200200C9B002B0F
:1031600000D0D1E608AC0126267004276770002540
:10317000A5706233E37025716571A571E571082250
:103180002100E948FFF7B9F80A20FDF779F8267021
:103190006770A570E57008222100E348FFF7ADF8DD
:1031A0000A20FDF76DF826706770A5705A239946BE
:1031B000E37008222100DC48FFF79FF80A20FDF7A2
:1031C0005FF826706770A570E57008222100D64868
:1031D000FFF793F80A20FDF753F826706770A57083
:1031E0005D23E37008222100CF48FFF786F80A200C
:1031F000FDF746F826706770A570E570082221007B
:10320000C948FFF77AF80A20FDF73AF82670677088
:10321000A5704B46E37008222100C348FFF76DF804
:103220000A20FDF72DF826706770A570E57008225A
:103230002100BD48FFF761F80A20FDF721F826704C
:103240006570A570E57025716571A571E5715BE626
:103250000D9B002B00D05BE608AC012626700427EE
:1032600067700025A5706233E37025716571A571E3
:10327000E57108222100AC48FFF73FF80A20FCF76F
:10328000FFFF26706770A570E57008222100A64830
:10329000FFF733F80A20FCF7F3FF26706770A5707C
:1032A0005A239946E370082221009F48FFF725F82A
:1032B0000A20FCF7E5FF26706770A570E57008220C
:1032C00021009948FFF719F80A20FCF7D9FF26706A
:1032D0006770A5704B46E370082221009248FFF703
:1032E0000CF80A20FCF7CCFF26706770A570E5701B
:1032F000082221008C48FFF700F80A20FCF7C0FFE5
:1033000026706770A5705B23E37008222100864851
:10331000FEF7F3FF0A20FCF7B3FF26706770A57075
:10332000E570082221008048FEF7E7FF0A20FCF73D
:10333000A7FF26706570A570E57025716571A57190
:10334000E571E5E50E9B002B00D0E5E508AC012614
:103350002670042767700025A5706233E37025711D
:103360006571A571E571082221006F48FEF7C5FF60
:103370000A20FCF785FF26706770A570E5700822AB
:1033800021006948FEF7B9FF0A20FCF779FF267093
:103390006770A5705923E370082221006248FEF788
:1033A000ACFF0A20FCF76CFF26706770A570E57013
:1033B000082221005C48FEF7A0FF0A20FCF760FF0E
:1033C00026706770A5706123E370082221005648BB
:1033D000FEF793FF0A20FCF753FF26706770A57075
:1033E000E570082221005048FEF787FF0A20FCF70D
:1033F00047FF26706770A5705E23E37008222100E6
:103400004948FEF77AFF0A20FCF73AFF26706770FA
:10341000A570E570082221004348FEF76EFF0A20E0
:10342000FCF72EFF26706570A570E570257165713B
:10343000A571E57170E50F9B002B00D070E508AC1D
:1034400001262670042767700025A5706233E3709B
:1034500025716571A571E571082221003248FEF7DA
:103460004CFF0A20FCF70CFF26706770A570E57012
:10347000082221002C48FEF740FF0A20FCF700FF3D
:1034800026706770A5705A23E37008222100264831
:10349000FEF733FF0A20FCF7F3FE26706770A57075
:1034A000E570082221002048FEF727FF0A20FCF7DC
:1034B000E7FE26706770A5705923E370082221008B
:1034C0001948FEF71AFF0A20FCF7DAFE267067702B
:1034D000A570E570082221001348FEF70EFF0A20B0
:1034E000FCF7CEFE26706770A5705C23E37008229F
:1034F00021000D48FEF701FF0A20FCF7C1FE2670EF
:103500006770A570E570082221000748FEF7F5FEF8
:103510000A20FCF7B5FE26706570A570E570257170
:103520006571A571E571FBE434020020109B002B4E
:1035300000D0F9E408AC0126267004276770002546
:10354000A57062339946E37025716571A571E571C7
:10355000082221008E48FEF7D0FE0A20FCF790FEDC
:1035600026706770A570E570082221008848FEF774
:10357000C4FE0A20FCF784FE26706770A5705A23EB
:103580009A46E370082221008148FEF7B6FE0A2021
:10359000FCF776FE26706770A570E57008222100A2
:1035A0007B48FEF7AAFE0A20FCF76AFE26706770C9
:1035B000A5705346E370082221007548FEF79DFE72
:1035C0000A20FCF75DFE26706770A570E570082282
:1035D00021006F48FEF791FE0A20FCF751FE26708D
:1035E0006770A5704B46E370082221006848FEF71B
:1035F00084FE0A20FCF744FE26706770A570E57013
:10360000082221006248FEF778FE0A20FCF738FE07
:1036100026706570A570E57025716571A571E571FD
:1036200082E4119B002B00D082E408AC01262670B6
:10363000042767700025A5706233E37025716571FA
:10364000A571E571082221005148FEF756FE0A20B7
:10365000FCF716FE26706770A570E5700822210041
:103660004B48FEF74AFE0A20FCF70AFE26706770F8
:10367000A5705923E370082221004548FEF73DFE5E
:103680000A20FCF7FDFD26706770A570E570082222
:1036900021003F48FEF731FE0A20FCF7F1FD2670BD
:1036A0006770A5705A23E370082221003848FEF79E
:1036B00024FE0A20FCF7E4FD26706770A570E57013
:1036C000082221003248FEF718FE0A20FCF7D8FD38
:1036D00026706770A5706023E370082221002C48D3
:1036E000FEF70BFE0A20FCF7CBFD26706770A57075
:1036F000E570082221002648FEF7FFFD0A20FCF7AE
:10370000BFFD26706570A570E57025716571A571A6
:10371000E5710DE41420FCF7B3FD19E49A0012A939
:1037200050580AA950500133072BF7DD1420FCF73D
:10373000A7FD184C01212000FCF7D0FE00900221CB
:103740002000FCF7CBFE019004212000FCF7C6FE10
:10375000029008212000FCF7C1FE039010212000F8
:10376000FCF7BCFE049020212000FCF7B7FE05907A
:1037700040212000FCF7B2FE069080212000FCF7DB
:10378000ADFE0790002100250024FFF770FBC04626
:1037900034020020000400487047000082B00A4B49
:1037A000996901221143996199690A400092009A2E
:1037B000DA69802149050A43DA61DB690B4001932C
:1037C000019B02B07047C0460010024010B588B09F
:1037D00004001422002103A800F0D6FA2268134B3B
:1037E0009A4201D008B010BD114C62698021C90213
:1037F0000A43626163690B400193019BC0231B0173
:10380000039312230493113B05930322069207931B
:1038100003A90848FCF79CFDE2698021C9030A431B
:10382000E261E3690B400293029BDBE70058004032
:10383000001002400004004810B588B004001422B3
:10384000002103A800F0A0FA2268134B9A4201D08D
:1038500008B010BD114B99698020C00101439961E6
:103860009A6902400192019A5A69802189020A43A9
:103870005A615B690B400293029BE023DB000393D8
:103880000223049301330693023B0793902003A97C
:10389000C005FCF75DFDDBE7003801400010024089
:1038A0007047FEE77047704710B5FCF7DBFC10BDB2
:1038B00010B50248FDF752FF10BDC0465804002065
:1038C000134B1A6801210A431A605A6811480240D2
:1038D0005A601A68104802401A601A680F4802407D
:1038E0001A605A680E4802405A60DA6A0F20824312
:1038F000DA621A6B0B4802401A631A6B802002438B
:103900001A635A6B8A435A6300229A607047C04612
:10391000001002400CB8FF08FFFFF6FEFFFFFBFFA0
:10392000FFFFC0FF6CFEFFFF10B5074C00220749E8
:103930002000FEF7F7FC06492000FEF70FFD2000EF
:10394000FEF715FD10BDC046340200204C010020DA
:10395000F800002010B5FFF709FA10BD00B583B0DC
:1039600002680C4B9A4201D003B000BD0A4AD169EB
:10397000802000040143D161D36903400193019B7E
:10398000002200211F20FCF78DFC1F20FCF7BAFC51
:10399000EAE7C046005C00400010024010B501009C
:1039A00087239B00C058ED31FF31FEF7FDFC10BDB1
:1039B00010B50300872292008058CA00521A940062
:1039C0001B191933FF331A68FEF722FD10BD10B51D
:1039D0000300872292008058CA00521A94001B19D3
:1039E0009A6BFEF751FD10BD10B587239B00C058A0
:1039F000FEF7E3FD10BD70B505008724A40001218A
:103A00000059FEF7C5FD2859FEF79FFD70BD000067
:103A100010B5040087239B00C058FEF7BCFDA369C6
:103A2000002B04D0024A136906210B43136110BD19
:103A300000ED00E010B504008369002B05D1872359
:103A40009B00E058FEF7B2FD10BD044A1369062141
:103A50008B431361FFF77EFFF1E7C04600ED00E006
:103A600070B50400174887239B00C4500433E0500E
:103A7000154B036008234360022282600023C36069
:103A800002618361C3610362FCF7F2FD002816D175
:103A90008825AD001823002200216059FDF7ECFEB7
:103AA0005823002280216059FDF7E6FE60598023EB
:103AB0005B0000228121FDF7DFFE002070BDFFF7D3
:103AC0006BFEE5E758040020005C004010B5882339
:103AD0009B00C058FCF72CFE002803D0022803D01E
:103AE000022010BD0020FCE70120FAE710B5140009
:103AF0001A0088239B00C0582300FCF741FE0028D1
:103B000003D0022803D0022010BD0020FCE70120D2
:103B1000FAE710B588239B00C058FCF7DBFF0028AC
:103B200003D0022803D0022010BD0020FCE70120B2
:103B3000FAE710B588239B00C058FDF7B3F90028B9
:103B400003D0022803D0022010BD0020FCE7012092
:103B5000FAE710B588239B00C058FDF703FA002848
:103B600003D0022803D0022010BD0020FCE7012072
:103B7000FAE70A0088239B00C35849B2002909DBF1
:103B80007F211140CA00511A8A009B180B33FF3362
:103B9000187870477F211140C800411A8A009B188D
:103BA0002A331878F5E710B588239B00C058FCF736
:103BB000CBFD002803D0022803D0022010BD002036
:103BC000FCE70120FAE710B58824A4000059FDF7AE
:103BD0004DFA002803D0022803D0022010BD002097
:103BE000FCE70120FAE710B58824A4000059FDF78E
:103BF00059F8002803D0022803D0022010BD00206D
:103C0000FCE70120FAE70000004870478801002027
:103C10007047000012230B800048704734010020D9
:103C200004230B80014814307047C0463401002043
:103C300010B50A00002805D005490648FEF76BFFBD
:103C4000034810BD02490348FEF765FFF8E7C04688
:103C500078060020683E000810B50A00034C2100D9
:103C60000348FEF758FF200010BDC046780600202C
:103C7000803E000810B50A00002805D00549064816
:103C8000FEF749FF034810BD02490348FEF743FF12
:103C9000F8E7C04678060020943E000810B50A00F8
:103CA000002805D005490648FEF735FF034810BD3A
:103CB00002490348FEF72FFFF8E7C04678060020C8
:103CC000A43E000810B50A00002805D005490648A2
:103CD000FEF721FF034810BD02490348FEF71BFF12
:103CE000F8E7C04678060020B03E00080D4885463B
:103CF0000D480E490E4A002302E0D458C450043344
:103D0000C4188C42F9D30B4A0B4C002301E013601A
:103D10000432A242FBD3FFF7D3FD00F011F8FFF706
:103D20005BF8FEE700400020000000206801002052
:103D3000C83E00086801002078080020FEE7000067
:103D400070B500260C4D0D4C641BA410A64209D181
:103D5000002600F021F80A4D0A4C641BA410A6426C
:103D600005D170BDB300EB5898470136EEE7B300BC
:103D7000EB5898470136F2E7C03E0008C03E000805
:103D8000C03E0008C43E000803001218934200D150
:103D9000704719700133F9E7F8B5C046F8BC08BCA4
:103DA0009E467047F8B5C046F8BC08BC9E467047B2
:103DB00002030405060708090A0B0C0D0E0F10106C
:103DC0000102030405060708090A0B0C0D0E0F106B
:103DD0007C270008662600088C260008BA26000802
:103DE0007C2700087C2700083C2700085A27000889
:103DF000C8260008DA260008EC260008FE2600087F
:103E00001027000822270008822900088E290008B0
:103E100094290008882900089429000870290008BE
:103E200068290008942900087C29000876290008E0
:103E30001E0000001F000000200000002100000004
:103E40002900000023000000500000004F00000087
:103E5000000000000000000001020304060708093A
:103E6000000000000102030453544D333220487512
:103E70006D616E20696E7465726661636500000035
:103E800053544D6963726F656C656374726F6E69CC
:103E900063730000303030303030303030303141FA
:103EA0000000000048494420436F6E6669670000C7
:103EB00048494420496E746572666163650000007C
:043EC000E90000080D
:043EC400C100000831
:103EC80009022200010100E0320904000001030197
:103ED800010009211101000122BB00070581030827
:103EE800000A00000A06000200000040010000006D
:103EF80009211101000122BB00000000050109068B
:103F0800A1018501050719E029E7150025017501BB
:103F18009508810275089501810105071900296531
:103F280015002565750895058100C0050C0901A1D6
:103F380001850219002A3C021500263C02950175EC
:103F4800108100C005010980A10185031981298319
:103F58001500250175019503810295058101C006AB
:103F680001FF0901A1018504950175081501250ABC
:103F78000920B1030923B103254F0921B1032530D5
:103F88000922B10395030924B103C00601FF090101
:103F9800A1018505950175081501250A0920B103B8
:103FA8000923B103254F0921B10325300922B103A3
:103FB80095030924B103C000D1220008AD220008EE
:103FC800E12100080000000000000000C1210008F5
:103FD80000000000000000000000000000000000D9
:103FE800B5210008B5210008B5210008D121000835
:103FF80000127A00120100020000004083042B57CF
:10400800000201020301000004030904153C000832
:10401800213C0008593C0008313C0008753C000868
:084028009D3C0008C53C0008A6
:0400000508003CEDC6
:00000001FF
